{
  "abi": [
    {
      "inputs": [
        {
          "internalType": "address",
          "name": "",
          "type": "address"
        },
        {
          "internalType": "address",
          "name": "",
          "type": "address"
        },
        {
          "internalType": "uint256[]",
          "name": "",
          "type": "uint256[]"
        },
        {
          "internalType": "uint256[]",
          "name": "",
          "type": "uint256[]"
        },
        {
          "internalType": "bytes",
          "name": "",
          "type": "bytes"
        }
      ],
      "name": "onERC1155BatchReceived",
      "outputs": [
        {
          "internalType": "bytes4",
          "name": "",
          "type": "bytes4"
        }
      ],
      "stateMutability": "nonpayable",
      "type": "function"
    },
    {
      "inputs": [
        {
          "internalType": "address",
          "name": "",
          "type": "address"
        },
        {
          "internalType": "address",
          "name": "",
          "type": "address"
        },
        {
          "internalType": "uint256",
          "name": "",
          "type": "uint256"
        },
        {
          "internalType": "uint256",
          "name": "",
          "type": "uint256"
        },
        {
          "internalType": "bytes",
          "name": "",
          "type": "bytes"
        }
      ],
      "name": "onERC1155Received",
      "outputs": [
        {
          "internalType": "bytes4",
          "name": "",
          "type": "bytes4"
        }
      ],
      "stateMutability": "nonpayable",
      "type": "function"
    },
    {
      "inputs": [
        {
          "internalType": "bytes4",
          "name": "interfaceId",
          "type": "bytes4"
        }
      ],
      "name": "supportsInterface",
      "outputs": [
        {
          "internalType": "bool",
          "name": "",
          "type": "bool"
        }
      ],
      "stateMutability": "view",
      "type": "function"
    },
    {
      "stateMutability": "payable",
      "type": "receive"
    }
  ],
  "bytecode": {
    "object": "0x608060405234801561001057600080fd5b506103ea806100206000396000f3fe6080604052600436106100385760003560e01c806301ffc9a714610044578063bc197c8114610079578063f23a6e61146100be57600080fd5b3661003f57005b600080fd5b34801561005057600080fd5b5061006461005f366004610121565b6100ea565b60405190151581526020015b60405180910390f35b34801561008557600080fd5b506100a56100943660046102a5565b63bc197c8160e01b95945050505050565b6040516001600160e01b03199091168152602001610070565b3480156100ca57600080fd5b506100a56100d936600461034f565b63f23a6e6160e01b95945050505050565b60006001600160e01b03198216630271189760e51b148061011b57506301ffc9a760e01b6001600160e01b03198316145b92915050565b60006020828403121561013357600080fd5b81356001600160e01b03198116811461014b57600080fd5b9392505050565b80356001600160a01b038116811461016957600080fd5b919050565b634e487b7160e01b600052604160045260246000fd5b604051601f8201601f1916810167ffffffffffffffff811182821017156101ad576101ad61016e565b604052919050565b600082601f8301126101c657600080fd5b8135602067ffffffffffffffff8211156101e2576101e261016e565b8160051b6101f1828201610184565b928352848101820192828101908785111561020b57600080fd5b83870192505b8483101561022a57823582529183019190830190610211565b979650505050505050565b600082601f83011261024657600080fd5b813567ffffffffffffffff8111156102605761026061016e565b610273601f8201601f1916602001610184565b81815284602083860101111561028857600080fd5b816020850160208301376000918101602001919091529392505050565b600080600080600060a086880312156102bd57600080fd5b6102c686610152565b94506102d460208701610152565b9350604086013567ffffffffffffffff808211156102f157600080fd5b6102fd89838a016101b5565b9450606088013591508082111561031357600080fd5b61031f89838a016101b5565b9350608088013591508082111561033557600080fd5b5061034288828901610235565b9150509295509295909350565b600080600080600060a0868803121561036757600080fd5b61037086610152565b945061037e60208701610152565b93506040860135925060608601359150608086013567ffffffffffffffff8111156103a857600080fd5b6103428882890161023556fea26469706673582212207f04ffb3d7096a0ffe381a81e842e7bf0202b920a32ab4d147d824bb42047ec664736f6c634300080d0033",
    "linkReferences": {}
  }
}