{
  "abi": [
    {
      "inputs": [
        {
          "internalType": "address",
          "name": "_currency",
          "type": "address"
        }
      ],
      "stateMutability": "nonpayable",
      "type": "constructor"
    },
    {
      "inputs": [],
      "name": "BOND_AMOUNT",
      "outputs": [
        {
          "internalType": "uint256",
          "name": "",
          "type": "uint256"
        }
      ],
      "stateMutability": "view",
      "type": "function"
    },
    {
      "inputs": [],
      "name": "DISPUTE_PERIOD",
      "outputs": [
        {
          "internalType": "uint256",
          "name": "",
          "type": "uint256"
        }
      ],
      "stateMutability": "view",
      "type": "function"
    },
    {
      "inputs": [],
      "name": "VOTING_PERIOD",
      "outputs": [
        {
          "internalType": "uint256",
          "name": "",
          "type": "uint256"
        }
      ],
      "stateMutability": "view",
      "type": "function"
    },
    {
      "inputs": [
        {
          "internalType": "string",
          "name": "questionString",
          "type": "string"
        },
        {
          "internalType": "string",
          "name": "resolutionSource",
          "type": "string"
        },
        {
          "internalType": "uint256",
          "name": "expiry",
          "type": "uint256"
        }
      ],
      "name": "askQuestion",
      "outputs": [],
      "stateMutability": "nonpayable",
      "type": "function"
    },
    {
      "inputs": [],
      "name": "currency",
      "outputs": [
        {
          "internalType": "contract IERC20",
          "name": "",
          "type": "address"
        }
      ],
      "stateMutability": "view",
      "type": "function"
    },
    {
      "inputs": [
        {
          "internalType": "bytes32",
          "name": "questionId",
          "type": "bytes32"
        }
      ],
      "name": "disputeProposal",
      "outputs": [],
      "stateMutability": "nonpayable",
      "type": "function"
    },
    {
      "inputs": [
        {
          "internalType": "bytes32",
          "name": "",
          "type": "bytes32"
        }
      ],
      "name": "disputerByQuestionId",
      "outputs": [
        {
          "internalType": "address",
          "name": "",
          "type": "address"
        }
      ],
      "stateMutability": "view",
      "type": "function"
    },
    {
      "inputs": [
        {
          "internalType": "bytes32",
          "name": "questionId",
          "type": "bytes32"
        }
      ],
      "name": "finalizeProposal",
      "outputs": [],
      "stateMutability": "nonpayable",
      "type": "function"
    },
    {
      "inputs": [
        {
          "internalType": "bytes32",
          "name": "questionId",
          "type": "bytes32"
        }
      ],
      "name": "finalizeVote",
      "outputs": [],
      "stateMutability": "nonpayable",
      "type": "function"
    },
    {
      "inputs": [],
      "name": "getAllQuestions",
      "outputs": [
        {
          "components": [
            {
              "internalType": "string",
              "name": "questionString",
              "type": "string"
            },
            {
              "internalType": "string",
              "name": "resolutionSource",
              "type": "string"
            },
            {
              "internalType": "uint256",
              "name": "expiry",
              "type": "uint256"
            },
            {
              "internalType": "bytes32",
              "name": "questionId",
              "type": "bytes32"
            },
            {
              "internalType": "enum Stage",
              "name": "stage",
              "type": "uint8"
            },
            {
              "internalType": "enum Result",
              "name": "result",
              "type": "uint8"
            }
          ],
          "internalType": "struct Question[]",
          "name": "",
          "type": "tuple[]"
        }
      ],
      "stateMutability": "view",
      "type": "function"
    },
    {
      "inputs": [
        {
          "internalType": "bytes32",
          "name": "questionId",
          "type": "bytes32"
        }
      ],
      "name": "getProposalByQuestionId",
      "outputs": [
        {
          "components": [
            {
              "internalType": "address",
              "name": "proposer",
              "type": "address"
            },
            {
              "internalType": "enum Result",
              "name": "answer",
              "type": "uint8"
            },
            {
              "internalType": "uint256",
              "name": "timestamp",
              "type": "uint256"
            }
          ],
          "internalType": "struct Proposal",
          "name": "",
          "type": "tuple"
        }
      ],
      "stateMutability": "view",
      "type": "function"
    },
    {
      "inputs": [
        {
          "internalType": "bytes32",
          "name": "questionId",
          "type": "bytes32"
        }
      ],
      "name": "getQuestionById",
      "outputs": [
        {
          "components": [
            {
              "internalType": "string",
              "name": "questionString",
              "type": "string"
            },
            {
              "internalType": "string",
              "name": "resolutionSource",
              "type": "string"
            },
            {
              "internalType": "uint256",
              "name": "expiry",
              "type": "uint256"
            },
            {
              "internalType": "bytes32",
              "name": "questionId",
              "type": "bytes32"
            },
            {
              "internalType": "enum Stage",
              "name": "stage",
              "type": "uint8"
            },
            {
              "internalType": "enum Result",
              "name": "result",
              "type": "uint8"
            }
          ],
          "internalType": "struct Question",
          "name": "",
          "type": "tuple"
        }
      ],
      "stateMutability": "view",
      "type": "function"
    },
    {
      "inputs": [
        {
          "internalType": "string",
          "name": "questionString",
          "type": "string"
        },
        {
          "internalType": "string",
          "name": "resolutionSource",
          "type": "string"
        },
        {
          "internalType": "uint256",
          "name": "expiry",
          "type": "uint256"
        }
      ],
      "name": "getQuestionId",
      "outputs": [
        {
          "internalType": "bytes32",
          "name": "",
          "type": "bytes32"
        }
      ],
      "stateMutability": "pure",
      "type": "function"
    },
    {
      "inputs": [
        {
          "internalType": "bytes32",
          "name": "questionId",
          "type": "bytes32"
        },
        {
          "internalType": "enum Result",
          "name": "answer",
          "type": "uint8"
        }
      ],
      "name": "makeVote",
      "outputs": [],
      "stateMutability": "nonpayable",
      "type": "function"
    },
    {
      "inputs": [
        {
          "internalType": "bytes32",
          "name": "",
          "type": "bytes32"
        }
      ],
      "name": "proposalByQuestionId",
      "outputs": [
        {
          "internalType": "address",
          "name": "proposer",
          "type": "address"
        },
        {
          "internalType": "enum Result",
          "name": "answer",
          "type": "uint8"
        },
        {
          "internalType": "uint256",
          "name": "timestamp",
          "type": "uint256"
        }
      ],
      "stateMutability": "view",
      "type": "function"
    },
    {
      "inputs": [
        {
          "internalType": "bytes32",
          "name": "questionId",
          "type": "bytes32"
        },
        {
          "internalType": "enum Result",
          "name": "answer",
          "type": "uint8"
        }
      ],
      "name": "proposeAnswer",
      "outputs": [],
      "stateMutability": "nonpayable",
      "type": "function"
    },
    {
      "inputs": [
        {
          "internalType": "bytes32",
          "name": "",
          "type": "bytes32"
        }
      ],
      "name": "questionById",
      "outputs": [
        {
          "internalType": "string",
          "name": "questionString",
          "type": "string"
        },
        {
          "internalType": "string",
          "name": "resolutionSource",
          "type": "string"
        },
        {
          "internalType": "uint256",
          "name": "expiry",
          "type": "uint256"
        },
        {
          "internalType": "bytes32",
          "name": "questionId",
          "type": "bytes32"
        },
        {
          "internalType": "enum Stage",
          "name": "stage",
          "type": "uint8"
        },
        {
          "internalType": "enum Result",
          "name": "result",
          "type": "uint8"
        }
      ],
      "stateMutability": "view",
      "type": "function"
    },
    {
      "inputs": [
        {
          "internalType": "uint256",
          "name": "",
          "type": "uint256"
        }
      ],
      "name": "questionIds",
      "outputs": [
        {
          "internalType": "bytes32",
          "name": "",
          "type": "bytes32"
        }
      ],
      "stateMutability": "view",
      "type": "function"
    },
    {
      "inputs": [
        {
          "internalType": "bytes32",
          "name": "",
          "type": "bytes32"
        }
      ],
      "name": "voteByQuestionId",
      "outputs": [
        {
          "internalType": "uint256",
          "name": "invalidCount",
          "type": "uint256"
        },
        {
          "internalType": "uint256",
          "name": "yesCount",
          "type": "uint256"
        },
        {
          "internalType": "uint256",
          "name": "noCount",
          "type": "uint256"
        },
        {
          "internalType": "uint256",
          "name": "endTimestamp",
          "type": "uint256"
        }
      ],
      "stateMutability": "view",
      "type": "function"
    }
  ],
  "bytecode": {
    "object": "0x608060405234801561001057600080fd5b5060405161197b38038061197b83398101604081905261002f9161006e565b600580546001600160a01b0319166001600160a01b0392909216919091179055678ac7230489e80000600655620151806007556202a30060085561009e565b60006020828403121561008057600080fd5b81516001600160a01b038116811461009757600080fd5b9392505050565b6118ce806100ad6000396000f3fe608060405234801561001057600080fd5b50600436106101215760003560e01c8063b1610d7e116100ad578063df6d798b11610071578063df6d798b1461029d578063e5a6b10f146102e9578063ed3dccaa14610314578063f03477831461033d578063f23a033b1461035057600080fd5b8063b1610d7e146101f4578063bcacc70a146101fd578063bfafb30e14610206578063c5be26a91461025d578063c6844d061461027d57600080fd5b8063516fa910116100f4578063516fa910146101915780635d9032b9146101a45780636af97c05146101b75780638b75d75a146101ca578063a5bbe22b146101dd57600080fd5b806321f98a15146101265780632af9338e1461013b578063369431ef1461015957806347d0da141461017e575b600080fd5b6101396101343660046113db565b610363565b005b610143610479565b6040516101509190611508565b60405180910390f35b61016c61016736600461156a565b610727565b60405161015096959493929190611583565b61013961018c36600461156a565b610873565b61013961019f36600461167f565b6109fa565b6101396101b23660046113db565b610b38565b6101396101c536600461156a565b610d28565b6101396101d836600461156a565b610ec3565b6101e660075481565b604051908152602001610150565b6101e660085481565b6101e660065481565b61023d61021436600461156a565b600360208190526000918252604090912080546001820154600283015492909301549092919084565b604080519485526020850193909352918301526060820152608001610150565b61027061026b36600461156a565b610ffd565b60405161015091906116ec565b61029061028b36600461156a565b611089565b604051610150919061171f565b6102da6102ab36600461156a565b600160208190526000918252604090912080549101546001600160a01b03821691600160a01b900460ff169083565b60405161015093929190611739565b6005546102fc906001600160a01b031681565b6040516001600160a01b039091168152602001610150565b6102fc61032236600461156a565b6002602052600090815260409020546001600160a01b031681565b6101e661034b36600461156a565b611282565b6101e661035e36600461167f565b6112a3565b600082815260036020819052604082209081015490910361039f5760405162461bcd60e51b815260040161039690611764565b60405180910390fd5b806003015442106103f25760405162461bcd60e51b815260206004820152601760248201527f566f74696e6720706572696f642068617320656e6465640000000000000000006044820152606401610396565b60008260028111156104065761040661145c565b0361042b57600181600001600082825461042091906117c5565b909155506104749050565b600182600281111561043f5761043f61145c565b0361045957600181600101600082825461042091906117c5565b600181600201600082825461046e91906117c5565b90915550505b505050565b60045460609060009067ffffffffffffffff81111561049a5761049a6115dc565b60405190808252806020026020018201604052801561050357816020015b6104f06040805160c0810182526060808252602082018190526000928201839052810182905290608082019081526020016000905290565b8152602001906001900390816104b85790505b50905060005b6004548110156107215760008060048381548110610529576105296117dd565b906000526020600020015481526020019081526020016000206040518060c001604052908160008201805461055d906117f3565b80601f0160208091040260200160405190810160405280929190818152602001828054610589906117f3565b80156105d65780601f106105ab576101008083540402835291602001916105d6565b820191906000526020600020905b8154815290600101906020018083116105b957829003601f168201915b505050505081526020016001820180546105ef906117f3565b80601f016020809104026020016040519081016040528092919081815260200182805461061b906117f3565b80156106685780601f1061063d57610100808354040283529160200191610668565b820191906000526020600020905b81548152906001019060200180831161064b57829003601f168201915b5050509183525050600282015460208201526003808301546040830152600483015460609092019160ff16908111156106a3576106a361145c565b60038111156106b4576106b461145c565b81526020016004820160019054906101000a900460ff1660028111156106dc576106dc61145c565b60028111156106ed576106ed61145c565b81525050828281518110610703576107036117dd565b6020026020010181905250808061071990611827565b915050610509565b50919050565b600060208190529081526040902080548190610742906117f3565b80601f016020809104026020016040519081016040528092919081815260200182805461076e906117f3565b80156107bb5780601f10610790576101008083540402835291602001916107bb565b820191906000526020600020905b81548152906001019060200180831161079e57829003601f168201915b5050505050908060010180546107d0906117f3565b80601f01602080910402602001604051908101604052809291908181526020018280546107fc906117f3565b80156108495780601f1061081e57610100808354040283529160200191610849565b820191906000526020600020905b81548152906001019060200180831161082c57829003601f168201915b50505050600283015460038401546004909401549293909290915060ff8082169161010090041686565b600081815260016020908152604080832081516060810190925280546001600160a01b03811683529192909190830190600160a01b900460ff1660028111156108be576108be61145c565b60028111156108cf576108cf61145c565b8152602001600182015481525050905060075481604001516108f191906117c5565b42116109375760405162461bcd60e51b8152602060048201526015602482015274546f6f206561726c7920746f2066696e616c697a6560581b6044820152606401610396565b6000828152600260205260409020546001600160a01b031680156109ac5760405162461bcd60e51b815260206004820152602660248201527f50726f706f73616c207761732064697370757465642c2063616e6e6f742066696044820152656e616c697a6560d01b6064820152608401610396565b600083815260208181526040909120600481018054600360ff1982168117835593860151929361ffff19909116176101008360028111156109ef576109ef61145c565b021790555050505050565b6000610a078484846112a3565b905060006040518060c0016040528086815260200185815260200184815260200183815260200160006003811115610a4157610a4161145c565b8152602001600090526000838152602081815260409091208251805193945084939192610a7392849290910190611342565b506020828101518051610a8c9260018501920190611342565b50604082015181600201556060820151816003015560808201518160040160006101000a81548160ff02191690836003811115610acb57610acb61145c565b021790555060a082015160048201805461ff001916610100836002811115610af557610af561145c565b021790555050600480546001810182556000919091527f8a35acfbc15ff81a39ae7d344fd709f28e8600b4aa8c65c6b64bfe7fe36bd19b01929092555050505050565b60008281526020819052604090206002810154421015610b8e5760405162461bcd60e51b81526020600482015260116024820152704e6f74207965742061742065787069727960781b6044820152606401610396565b6000600482015460ff166003811115610ba957610ba961145c565b14610bf65760405162461bcd60e51b815260206004820181905260248201527f5175657374696f6e20616c7265616479206861766520612070726f706f73616c6044820152606401610396565b6040518060600160405280336001600160a01b03168152602001836002811115610c2257610c2261145c565b81524260209182015260008581526001825260409020825181546001600160a01b039091166001600160a01b031982168117835592840151919283916001600160a81b03191617600160a01b836002811115610c8057610c8061145c565b02179055506040919091015160019182015560048201805460ff1916828002179055506005546006546040516323b872dd60e01b815233600482015230602482015260448101919091526001600160a01b03909116906323b872dd906064016020604051808303816000875af1158015610cfe573d6000803e3d6000fd5b505050506040513d601f19601f82011682018060405250810190610d229190611840565b50505050565b60008181526020819052604090206001600482015460ff166003811115610d5157610d5161145c565b14610d9e5760405162461bcd60e51b815260206004820152601b60248201527f5175657374696f6e2063616e6e6f7420626520646973707574656400000000006044820152606401610396565b6000828152600160208190526040909120600754918101549091610dc1916117c5565b4210610e055760405162461bcd60e51b8152602060048201526013602482015272746f6f206c61746520746f206469737075746560681b6044820152606401610396565b6004828101805460ff19166002908117909155600085815260209190915260409081902080546001600160a01b0319163390811790915560055460065492516323b872dd60e01b81529384019190915230602484015260448301919091526001600160a01b0316906323b872dd906064016020604051808303816000875af1158015610e95573d6000803e3d6000fd5b505050506040513d601f19601f82011682018060405250810190610eb99190611840565b50610474836112d9565b60008181526003602081815260408084208151608081018352815481526001820154938101939093526002810154918301919091529091015460608201819052909103610f225760405162461bcd60e51b815260040161039690611764565b80606001514211610f755760405162461bcd60e51b815260206004820152601b60248201527f566f74696e6720706572696f6420686173206e6f7420656e64656400000000006044820152606401610396565b600082815260208181526040918290209183015190830151118015610f9e575081516020830151115b15610fb95760048101805461ff001916610100179055610feb565b81604001518260200151108015610fd4575081516040830151115b15610feb5760048101805461ff0019166102001790555b600401805460ff191660031790555050565b604080516060810182526000808252602082018190529181019190915260008281526001602090815260409182902082516060810190935280546001600160a01b03811684529091830190600160a01b900460ff1660028111156110635761106361145c565b60028111156110745761107461145c565b81526020016001820154815250509050919050565b6110c16040805160c0810182526060808252602082018190526000928201839052810182905290608082019081526020016000905290565b60008281526020819052604090819020815160c081019092528054829082906110e9906117f3565b80601f0160208091040260200160405190810160405280929190818152602001828054611115906117f3565b80156111625780601f1061113757610100808354040283529160200191611162565b820191906000526020600020905b81548152906001019060200180831161114557829003601f168201915b5050505050815260200160018201805461117b906117f3565b80601f01602080910402602001604051908101604052809291908181526020018280546111a7906117f3565b80156111f45780601f106111c9576101008083540402835291602001916111f4565b820191906000526020600020905b8154815290600101906020018083116111d757829003601f168201915b5050509183525050600282015460208201526003808301546040830152600483015460609092019160ff169081111561122f5761122f61145c565b60038111156112405761124061145c565b81526020016004820160019054906101000a900460ff1660028111156112685761126861145c565b60028111156112795761127961145c565b90525092915050565b6004818154811061129257600080fd5b600091825260209091200154905081565b60008383836040516020016112ba93929190611862565b6040516020818303038152906040528051906020012090509392505050565b600060405180608001604052806000815260200160008152602001600081526020016008544261130991906117c5565b90526000928352600360208181526040948590208351815590830151600182015593820151600285015560609091015192019190915550565b82805461134e906117f3565b90600052602060002090601f01602090048101928261137057600085556113b6565b82601f1061138957805160ff19168380011785556113b6565b828001600101855582156113b6579182015b828111156113b657825182559160200191906001019061139b565b506113c29291506113c6565b5090565b5b808211156113c257600081556001016113c7565b600080604083850312156113ee57600080fd5b8235915060208301356003811061140457600080fd5b809150509250929050565b6000815180845260005b8181101561143557602081850181015186830182015201611419565b81811115611447576000602083870101525b50601f01601f19169290920160200192915050565b634e487b7160e01b600052602160045260246000fd5b600481106114825761148261145c565b9052565b600381106114825761148261145c565b6000815160c084526114ab60c085018261140f565b9050602083015184820360208601526114c4828261140f565b915050604083015160408501526060830151606085015260808301516114ed6080860182611472565b5060a083015161150060a0860182611486565b509392505050565b6000602080830181845280855180835260408601915060408160051b870101925083870160005b8281101561155d57603f1988860301845261154b858351611496565b9450928501929085019060010161152f565b5092979650505050505050565b60006020828403121561157c57600080fd5b5035919050565b60c08152600061159660c083018961140f565b82810360208401526115a8818961140f565b9150508560408301528460608301526115c46080830185611472565b6115d160a0830184611486565b979650505050505050565b634e487b7160e01b600052604160045260246000fd5b600082601f83011261160357600080fd5b813567ffffffffffffffff8082111561161e5761161e6115dc565b604051601f8301601f19908116603f01168101908282118183101715611646576116466115dc565b8160405283815286602085880101111561165f57600080fd5b836020870160208301376000602085830101528094505050505092915050565b60008060006060848603121561169457600080fd5b833567ffffffffffffffff808211156116ac57600080fd5b6116b8878388016115f2565b945060208601359150808211156116ce57600080fd5b506116db868287016115f2565b925050604084013590509250925092565b81516001600160a01b03168152602080830151606083019161171090840182611486565b50604092830151919092015290565b6020815260006117326020830184611496565b9392505050565b6001600160a01b0384168152606081016117566020830185611486565b826040830152949350505050565b6020808252602b908201527f5468657265206973206e6f206f6e676f696e6720766f746520666f722074686960408201526a399038bab2b9ba34b7b71760a91b606082015260800190565b634e487b7160e01b600052601160045260246000fd5b600082198211156117d8576117d86117af565b500190565b634e487b7160e01b600052603260045260246000fd5b600181811c9082168061180757607f821691505b60208210810361072157634e487b7160e01b600052602260045260246000fd5b600060018201611839576118396117af565b5060010190565b60006020828403121561185257600080fd5b8151801515811461173257600080fd5b606081526000611875606083018661140f565b8281036020840152611887818661140f565b91505082604083015294935050505056fea2646970667358221220c7e4b1c0721e9aa183f2dd38340d5c7befb51f3993c03f603cc2ad79f33c4eef64736f6c634300080d0033",
    "linkReferences": {}
  }
}