{
  "abi": [
    {
      "inputs": [
        {
          "internalType": "address",
          "name": "_currency",
          "type": "address"
        }
      ],
      "stateMutability": "nonpayable",
      "type": "constructor"
    },
    {
      "inputs": [],
      "name": "BOND_AMOUNT",
      "outputs": [
        {
          "internalType": "uint256",
          "name": "",
          "type": "uint256"
        }
      ],
      "stateMutability": "view",
      "type": "function"
    },
    {
      "inputs": [],
      "name": "DISPUTE_PERIOD",
      "outputs": [
        {
          "internalType": "uint256",
          "name": "",
          "type": "uint256"
        }
      ],
      "stateMutability": "view",
      "type": "function"
    },
    {
      "inputs": [],
      "name": "VOTING_PERIOD",
      "outputs": [
        {
          "internalType": "uint256",
          "name": "",
          "type": "uint256"
        }
      ],
      "stateMutability": "view",
      "type": "function"
    },
    {
      "inputs": [
        {
          "internalType": "string",
          "name": "questionString",
          "type": "string"
        },
        {
          "internalType": "string",
          "name": "resolutionSource",
          "type": "string"
        },
        {
          "internalType": "uint256",
          "name": "expiry",
          "type": "uint256"
        }
      ],
      "name": "askQuestion",
      "outputs": [],
      "stateMutability": "nonpayable",
      "type": "function"
    },
    {
      "inputs": [],
      "name": "currency",
      "outputs": [
        {
          "internalType": "contract IERC20",
          "name": "",
          "type": "address"
        }
      ],
      "stateMutability": "view",
      "type": "function"
    },
    {
      "inputs": [
        {
          "internalType": "bytes32",
          "name": "questionId",
          "type": "bytes32"
        }
      ],
      "name": "disputeProposal",
      "outputs": [],
      "stateMutability": "nonpayable",
      "type": "function"
    },
    {
      "inputs": [
        {
          "internalType": "bytes32",
          "name": "",
          "type": "bytes32"
        }
      ],
      "name": "disputerByQuestionId",
      "outputs": [
        {
          "internalType": "address",
          "name": "",
          "type": "address"
        }
      ],
      "stateMutability": "view",
      "type": "function"
    },
    {
      "inputs": [
        {
          "internalType": "bytes32",
          "name": "questionId",
          "type": "bytes32"
        }
      ],
      "name": "finalizeProposal",
      "outputs": [],
      "stateMutability": "nonpayable",
      "type": "function"
    },
    {
      "inputs": [
        {
          "internalType": "bytes32",
          "name": "questionId",
          "type": "bytes32"
        }
      ],
      "name": "finalizeVote",
      "outputs": [],
      "stateMutability": "nonpayable",
      "type": "function"
    },
    {
      "inputs": [
        {
          "internalType": "bytes32",
          "name": "questionId",
          "type": "bytes32"
        }
      ],
      "name": "getProposalByQuestionId",
      "outputs": [
        {
          "components": [
            {
              "internalType": "address",
              "name": "proposer",
              "type": "address"
            },
            {
              "internalType": "enum Result",
              "name": "answer",
              "type": "uint8"
            },
            {
              "internalType": "uint256",
              "name": "timestamp",
              "type": "uint256"
            }
          ],
          "internalType": "struct Proposal",
          "name": "",
          "type": "tuple"
        }
      ],
      "stateMutability": "view",
      "type": "function"
    },
    {
      "inputs": [
        {
          "internalType": "bytes32",
          "name": "questionId",
          "type": "bytes32"
        }
      ],
      "name": "getQuestionById",
      "outputs": [
        {
          "components": [
            {
              "internalType": "string",
              "name": "questionString",
              "type": "string"
            },
            {
              "internalType": "string",
              "name": "resolutionSource",
              "type": "string"
            },
            {
              "internalType": "uint256",
              "name": "expiry",
              "type": "uint256"
            },
            {
              "internalType": "enum Stage",
              "name": "stage",
              "type": "uint8"
            },
            {
              "internalType": "enum Result",
              "name": "result",
              "type": "uint8"
            }
          ],
          "internalType": "struct Question",
          "name": "",
          "type": "tuple"
        }
      ],
      "stateMutability": "view",
      "type": "function"
    },
    {
      "inputs": [
        {
          "internalType": "string",
          "name": "questionString",
          "type": "string"
        },
        {
          "internalType": "string",
          "name": "resolutionSource",
          "type": "string"
        },
        {
          "internalType": "uint256",
          "name": "expiry",
          "type": "uint256"
        }
      ],
      "name": "getQuestionId",
      "outputs": [
        {
          "internalType": "bytes32",
          "name": "",
          "type": "bytes32"
        }
      ],
      "stateMutability": "pure",
      "type": "function"
    },
    {
      "inputs": [
        {
          "internalType": "bytes32",
          "name": "questionId",
          "type": "bytes32"
        },
        {
          "internalType": "enum Result",
          "name": "answer",
          "type": "uint8"
        }
      ],
      "name": "makeVote",
      "outputs": [],
      "stateMutability": "nonpayable",
      "type": "function"
    },
    {
      "inputs": [
        {
          "internalType": "bytes32",
          "name": "",
          "type": "bytes32"
        }
      ],
      "name": "proposalByQuestionId",
      "outputs": [
        {
          "internalType": "address",
          "name": "proposer",
          "type": "address"
        },
        {
          "internalType": "enum Result",
          "name": "answer",
          "type": "uint8"
        },
        {
          "internalType": "uint256",
          "name": "timestamp",
          "type": "uint256"
        }
      ],
      "stateMutability": "view",
      "type": "function"
    },
    {
      "inputs": [
        {
          "internalType": "bytes32",
          "name": "questionId",
          "type": "bytes32"
        },
        {
          "internalType": "enum Result",
          "name": "answer",
          "type": "uint8"
        }
      ],
      "name": "proposeAnswer",
      "outputs": [],
      "stateMutability": "nonpayable",
      "type": "function"
    },
    {
      "inputs": [
        {
          "internalType": "bytes32",
          "name": "",
          "type": "bytes32"
        }
      ],
      "name": "questionById",
      "outputs": [
        {
          "internalType": "string",
          "name": "questionString",
          "type": "string"
        },
        {
          "internalType": "string",
          "name": "resolutionSource",
          "type": "string"
        },
        {
          "internalType": "uint256",
          "name": "expiry",
          "type": "uint256"
        },
        {
          "internalType": "enum Stage",
          "name": "stage",
          "type": "uint8"
        },
        {
          "internalType": "enum Result",
          "name": "result",
          "type": "uint8"
        }
      ],
      "stateMutability": "view",
      "type": "function"
    },
    {
      "inputs": [
        {
          "internalType": "bytes32",
          "name": "",
          "type": "bytes32"
        }
      ],
      "name": "voteByQuestionId",
      "outputs": [
        {
          "internalType": "uint256",
          "name": "invalidCount",
          "type": "uint256"
        },
        {
          "internalType": "uint256",
          "name": "yesCount",
          "type": "uint256"
        },
        {
          "internalType": "uint256",
          "name": "noCount",
          "type": "uint256"
        },
        {
          "internalType": "uint256",
          "name": "endTimestamp",
          "type": "uint256"
        }
      ],
      "stateMutability": "view",
      "type": "function"
    }
  ],
  "bytecode": {
    "object": "0x608060405234801561001057600080fd5b5060405161157d38038061157d83398101604081905261002f9161006e565b600480546001600160a01b0319166001600160a01b0392909216919091179055678ac7230489e80000600555620151806006556202a30060075561009e565b60006020828403121561008057600080fd5b81516001600160a01b038116811461009757600080fd5b9392505050565b6114d0806100ad6000396000f3fe608060405234801561001057600080fd5b506004361061010b5760003560e01c8063b1610d7e116100a2578063c6844d0611610071578063c6844d0614610251578063df6d798b14610271578063e5a6b10f146102bd578063ed3dccaa146102e8578063f23a033b1461031157600080fd5b8063b1610d7e146101c8578063bcacc70a146101d1578063bfafb30e146101da578063c5be26a91461023157600080fd5b80635d9032b9116100de5780635d9032b9146101785780636af97c051461018b5780638b75d75a1461019e578063a5bbe22b146101b157600080fd5b806321f98a1514610110578063369431ef1461012557806347d0da1414610152578063516fa91014610165575b600080fd5b61012361011e366004611089565b610324565b005b6101386101333660046110bd565b61043a565b60405161014995949392919061115d565b60405180910390f35b6101236101603660046110bd565b61057f565b610123610173366004611252565b610709565b610123610186366004611089565b610802565b6101236101993660046110bd565b6109f0565b6101236101ac3660046110bd565b610b8b565b6101ba60065481565b604051908152602001610149565b6101ba60075481565b6101ba60055481565b6102116101e83660046110bd565b600360208190526000918252604090912080546001820154600283015492909301549092919084565b604080519485526020850193909352918301526060820152608001610149565b61024461023f3660046110bd565b610cc7565b60405161014991906112bf565b61026461025f3660046110bd565b610d53565b60405161014991906112f2565b6102ae61027f3660046110bd565b600160208190526000918252604090912080549101546001600160a01b03821691600160a01b900460ff169083565b60405161014993929190611365565b6004546102d0906001600160a01b031681565b6040516001600160a01b039091168152602001610149565b6102d06102f63660046110bd565b6002602052600090815260409020546001600160a01b031681565b6101ba61031f366004611252565b610f12565b60008281526003602081905260408220908101549091036103605760405162461bcd60e51b815260040161035790611390565b60405180910390fd5b806003015442106103b35760405162461bcd60e51b815260206004820152601760248201527f566f74696e6720706572696f642068617320656e6465640000000000000000006044820152606401610357565b60008260028111156103c7576103c7611123565b036103ec5760018160000160008282546103e191906113db565b909155506104359050565b600182600281111561040057610400611123565b0361041a5760018160010160008282546103e191906113db565b600181600201600082825461042f91906113db565b90915550505b505050565b60006020819052908152604090208054819061045590611401565b80601f016020809104026020016040519081016040528092919081815260200182805461048190611401565b80156104ce5780601f106104a3576101008083540402835291602001916104ce565b820191906000526020600020905b8154815290600101906020018083116104b157829003601f168201915b5050505050908060010180546104e390611401565b80601f016020809104026020016040519081016040528092919081815260200182805461050f90611401565b801561055c5780601f106105315761010080835404028352916020019161055c565b820191906000526020600020905b81548152906001019060200180831161053f57829003601f168201915b50505050600283015460039093015491929160ff80821692506101009091041685565b600081815260016020908152604080832081516060810190925280546001600160a01b03811683529192909190830190600160a01b900460ff1660028111156105ca576105ca611123565b60028111156105db576105db611123565b8152602001600182015481525050905060065481604001516105fd91906113db565b42116106435760405162461bcd60e51b8152602060048201526015602482015274546f6f206561726c7920746f2066696e616c697a6560581b6044820152606401610357565b6000828152600260205260409020546001600160a01b031680156106b85760405162461bcd60e51b815260206004820152602660248201527f50726f706f73616c207761732064697370757465642c2063616e6e6f742066696044820152656e616c697a6560d01b6064820152608401610357565b60008381526020819052604090206003808201805460ff19166001830217905550602083015160038201805461ff0019166101008360028111156106fe576106fe611123565b021790555050505050565b6000610716848484610f12565b905060006040518060a001604052808681526020018581526020018481526020016000600381111561074a5761074a611123565b815260200160009052600083815260208181526040909120825180519394508493919261077c92849290910190610fb1565b5060208281015180516107959260018501920190610fb1565b506040820151816002015560608201518160030160006101000a81548160ff021916908360038111156107ca576107ca611123565b0217905550608082015160038201805461ff0019166101008360028111156107f4576107f4611123565b021790555050505050505050565b600082815260208190526040902060028101544210156108585760405162461bcd60e51b81526020600482015260116024820152704e6f74207965742061742065787069727960781b6044820152606401610357565b600060038083015460ff169081111561087357610873611123565b146108c05760405162461bcd60e51b815260206004820181905260248201527f5175657374696f6e20616c7265616479206861766520612070726f706f73616c6044820152606401610357565b6040518060600160405280336001600160a01b031681526020018360028111156108ec576108ec611123565b81524260209182015260008581526001825260409020825181546001600160a01b039091166001600160a01b031982168117835592840151919283916001600160a81b03191617600160a01b83600281111561094a5761094a611123565b02179055506040919091015160019182015560038201805460ff191682800217905550600480546005546040516323b872dd60e01b8152339381019390935230602484015260448301526001600160a01b0316906323b872dd906064016020604051808303816000875af11580156109c6573d6000803e3d6000fd5b505050506040513d601f19601f820116820180604052508101906109ea919061143b565b50505050565b6000818152602081905260409020600160038083015460ff1690811115610a1957610a19611123565b14610a665760405162461bcd60e51b815260206004820152601b60248201527f5175657374696f6e2063616e6e6f7420626520646973707574656400000000006044820152606401610357565b6000828152600160208190526040909120600654918101549091610a89916113db565b4210610acd5760405162461bcd60e51b8152602060048201526013602482015272746f6f206c61746520746f206469737075746560681b6044820152606401610357565b60038201805460ff19166002908117909155600084815260209190915260409081902080546001600160a01b031916339081179091556004805460055493516323b872dd60e01b81529182019290925230602482015260448101929092526001600160a01b0316906323b872dd906064016020604051808303816000875af1158015610b5d573d6000803e3d6000fd5b505050506040513d601f19601f82011682018060405250810190610b81919061143b565b5061043583610f48565b60008181526003602081815260408084208151608081018352815481526001820154938101939093526002810154918301919091529091015460608201819052909103610bea5760405162461bcd60e51b815260040161035790611390565b80606001514211610c3d5760405162461bcd60e51b815260206004820152601b60248201527f566f74696e6720706572696f6420686173206e6f7420656e64656400000000006044820152606401610357565b600082815260208181526040918290209183015190830151118015610c66575081516020830151115b15610c815760038101805461ff001916610100179055610cb3565b81604001518260200151108015610c9c575081516040830151115b15610cb35760038101805461ff0019166102001790555b6003908101805460ff191690911790555050565b604080516060810182526000808252602082018190529181019190915260008281526001602090815260409182902082516060810190935280546001600160a01b03811684529091830190600160a01b900460ff166002811115610d2d57610d2d611123565b6002811115610d3e57610d3e611123565b81526020016001820154815250509050919050565b610d5b611035565b60008281526020819052604090819020815160a08101909252805482908290610d8390611401565b80601f0160208091040260200160405190810160405280929190818152602001828054610daf90611401565b8015610dfc5780601f10610dd157610100808354040283529160200191610dfc565b820191906000526020600020905b815481529060010190602001808311610ddf57829003601f168201915b50505050508152602001600182018054610e1590611401565b80601f0160208091040260200160405190810160405280929190818152602001828054610e4190611401565b8015610e8e5780601f10610e6357610100808354040283529160200191610e8e565b820191906000526020600020905b815481529060010190602001808311610e7157829003601f168201915b50505091835250506002820154602082015260038083015460409092019160ff1690811115610ebf57610ebf611123565b6003811115610ed057610ed0611123565b81526020016003820160019054906101000a900460ff166002811115610ef857610ef8611123565b6002811115610f0957610f09611123565b90525092915050565b6000838383604051602001610f2993929190611464565b6040516020818303038152906040528051906020012090509392505050565b6000604051806080016040528060008152602001600081526020016000815260200160075442610f7891906113db565b90526000928352600360208181526040948590208351815590830151600182015593820151600285015560609091015192019190915550565b828054610fbd90611401565b90600052602060002090601f016020900481019282610fdf5760008555611025565b82601f10610ff857805160ff1916838001178555611025565b82800160010185558215611025579182015b8281111561102557825182559160200191906001019061100a565b50611031929150611074565b5090565b6040518060a001604052806060815260200160608152602001600081526020016000600381111561106857611068611123565b81526020016000905290565b5b808211156110315760008155600101611075565b6000806040838503121561109c57600080fd5b823591506020830135600381106110b257600080fd5b809150509250929050565b6000602082840312156110cf57600080fd5b5035919050565b6000815180845260005b818110156110fc576020818501810151868301820152016110e0565b8181111561110e576000602083870101525b50601f01601f19169290920160200192915050565b634e487b7160e01b600052602160045260246000fd5b6004811061114957611149611123565b9052565b6003811061114957611149611123565b60a08152600061117060a08301886110d6565b828103602084015261118281886110d6565b9150508460408301526111986060830185611139565b6111a5608083018461114d565b9695505050505050565b634e487b7160e01b600052604160045260246000fd5b600082601f8301126111d657600080fd5b813567ffffffffffffffff808211156111f1576111f16111af565b604051601f8301601f19908116603f01168101908282118183101715611219576112196111af565b8160405283815286602085880101111561123257600080fd5b836020870160208301376000602085830101528094505050505092915050565b60008060006060848603121561126757600080fd5b833567ffffffffffffffff8082111561127f57600080fd5b61128b878388016111c5565b945060208601359150808211156112a157600080fd5b506112ae868287016111c5565b925050604084013590509250925092565b81516001600160a01b0316815260208083015160608301916112e39084018261114d565b50604092830151919092015290565b602081526000825160a0602084015261130e60c08401826110d6565b90506020840151601f1984830301604085015261132b82826110d6565b91505060408401516060840152606084015161134a6080850182611139565b50608084015161135d60a085018261114d565b509392505050565b6001600160a01b038416815260608101611382602083018561114d565b826040830152949350505050565b6020808252602b908201527f5468657265206973206e6f206f6e676f696e6720766f746520666f722074686960408201526a399038bab2b9ba34b7b71760a91b606082015260800190565b600082198211156113fc57634e487b7160e01b600052601160045260246000fd5b500190565b600181811c9082168061141557607f821691505b60208210810361143557634e487b7160e01b600052602260045260246000fd5b50919050565b60006020828403121561144d57600080fd5b8151801515811461145d57600080fd5b9392505050565b60608152600061147760608301866110d6565b828103602084015261148981866110d6565b91505082604083015294935050505056fea264697066735822122059c971f40ed596731a9536679c6868f2dd36c6ae8c9e8833cd5e99e6e480fd8864736f6c634300080d0033",
    "linkReferences": {}
  }
}