{
  "abi": [
    {
      "inputs": [
        {
          "internalType": "address",
          "name": "_currency",
          "type": "address"
        }
      ],
      "stateMutability": "nonpayable",
      "type": "constructor"
    },
    {
      "inputs": [],
      "name": "BOND_AMOUNT",
      "outputs": [
        {
          "internalType": "uint256",
          "name": "",
          "type": "uint256"
        }
      ],
      "stateMutability": "view",
      "type": "function"
    },
    {
      "inputs": [],
      "name": "COMMIT_PHASE",
      "outputs": [
        {
          "internalType": "uint256",
          "name": "",
          "type": "uint256"
        }
      ],
      "stateMutability": "view",
      "type": "function"
    },
    {
      "inputs": [],
      "name": "DISPUTE_PERIOD",
      "outputs": [
        {
          "internalType": "uint256",
          "name": "",
          "type": "uint256"
        }
      ],
      "stateMutability": "view",
      "type": "function"
    },
    {
      "inputs": [],
      "name": "REVEAL_PHASE",
      "outputs": [
        {
          "internalType": "uint256",
          "name": "",
          "type": "uint256"
        }
      ],
      "stateMutability": "view",
      "type": "function"
    },
    {
      "inputs": [],
      "name": "VOTING_PERIOD",
      "outputs": [
        {
          "internalType": "uint256",
          "name": "",
          "type": "uint256"
        }
      ],
      "stateMutability": "view",
      "type": "function"
    },
    {
      "inputs": [
        {
          "internalType": "string",
          "name": "questionString",
          "type": "string"
        },
        {
          "internalType": "string",
          "name": "resolutionSource",
          "type": "string"
        },
        {
          "internalType": "uint256",
          "name": "expiry",
          "type": "uint256"
        }
      ],
      "name": "askQuestion",
      "outputs": [],
      "stateMutability": "nonpayable",
      "type": "function"
    },
    {
      "inputs": [
        {
          "internalType": "bytes32",
          "name": "",
          "type": "bytes32"
        },
        {
          "internalType": "address",
          "name": "",
          "type": "address"
        }
      ],
      "name": "commit",
      "outputs": [
        {
          "internalType": "bytes32",
          "name": "",
          "type": "bytes32"
        }
      ],
      "stateMutability": "view",
      "type": "function"
    },
    {
      "inputs": [
        {
          "internalType": "bytes32",
          "name": "questionId",
          "type": "bytes32"
        },
        {
          "internalType": "bytes32",
          "name": "commitHash",
          "type": "bytes32"
        }
      ],
      "name": "commitVote",
      "outputs": [],
      "stateMutability": "nonpayable",
      "type": "function"
    },
    {
      "inputs": [],
      "name": "currency",
      "outputs": [
        {
          "internalType": "contract IERC20",
          "name": "",
          "type": "address"
        }
      ],
      "stateMutability": "view",
      "type": "function"
    },
    {
      "inputs": [
        {
          "internalType": "bytes32",
          "name": "questionId",
          "type": "bytes32"
        }
      ],
      "name": "disputeProposal",
      "outputs": [],
      "stateMutability": "nonpayable",
      "type": "function"
    },
    {
      "inputs": [
        {
          "internalType": "bytes32",
          "name": "",
          "type": "bytes32"
        }
      ],
      "name": "disputerByQuestionId",
      "outputs": [
        {
          "internalType": "address",
          "name": "",
          "type": "address"
        }
      ],
      "stateMutability": "view",
      "type": "function"
    },
    {
      "inputs": [
        {
          "internalType": "bytes32",
          "name": "questionId",
          "type": "bytes32"
        }
      ],
      "name": "finalizeProposal",
      "outputs": [],
      "stateMutability": "nonpayable",
      "type": "function"
    },
    {
      "inputs": [
        {
          "internalType": "bytes32",
          "name": "questionId",
          "type": "bytes32"
        }
      ],
      "name": "finalizeVote",
      "outputs": [],
      "stateMutability": "nonpayable",
      "type": "function"
    },
    {
      "inputs": [],
      "name": "getAllQuestions",
      "outputs": [
        {
          "components": [
            {
              "internalType": "string",
              "name": "questionString",
              "type": "string"
            },
            {
              "internalType": "string",
              "name": "resolutionSource",
              "type": "string"
            },
            {
              "internalType": "uint256",
              "name": "expiry",
              "type": "uint256"
            },
            {
              "internalType": "bytes32",
              "name": "questionId",
              "type": "bytes32"
            },
            {
              "internalType": "enum Stage",
              "name": "stage",
              "type": "uint8"
            },
            {
              "internalType": "enum Result",
              "name": "result",
              "type": "uint8"
            }
          ],
          "internalType": "struct Question[]",
          "name": "",
          "type": "tuple[]"
        }
      ],
      "stateMutability": "view",
      "type": "function"
    },
    {
      "inputs": [
        {
          "internalType": "bytes32",
          "name": "questionId",
          "type": "bytes32"
        }
      ],
      "name": "getProposalByQuestionId",
      "outputs": [
        {
          "components": [
            {
              "internalType": "address",
              "name": "proposer",
              "type": "address"
            },
            {
              "internalType": "enum Result",
              "name": "answer",
              "type": "uint8"
            },
            {
              "internalType": "uint256",
              "name": "timestamp",
              "type": "uint256"
            }
          ],
          "internalType": "struct Proposal",
          "name": "",
          "type": "tuple"
        }
      ],
      "stateMutability": "view",
      "type": "function"
    },
    {
      "inputs": [
        {
          "internalType": "bytes32",
          "name": "questionId",
          "type": "bytes32"
        }
      ],
      "name": "getQuestionById",
      "outputs": [
        {
          "components": [
            {
              "internalType": "string",
              "name": "questionString",
              "type": "string"
            },
            {
              "internalType": "string",
              "name": "resolutionSource",
              "type": "string"
            },
            {
              "internalType": "uint256",
              "name": "expiry",
              "type": "uint256"
            },
            {
              "internalType": "bytes32",
              "name": "questionId",
              "type": "bytes32"
            },
            {
              "internalType": "enum Stage",
              "name": "stage",
              "type": "uint8"
            },
            {
              "internalType": "enum Result",
              "name": "result",
              "type": "uint8"
            }
          ],
          "internalType": "struct Question",
          "name": "",
          "type": "tuple"
        }
      ],
      "stateMutability": "view",
      "type": "function"
    },
    {
      "inputs": [
        {
          "internalType": "string",
          "name": "questionString",
          "type": "string"
        },
        {
          "internalType": "string",
          "name": "resolutionSource",
          "type": "string"
        },
        {
          "internalType": "uint256",
          "name": "expiry",
          "type": "uint256"
        }
      ],
      "name": "getQuestionId",
      "outputs": [
        {
          "internalType": "bytes32",
          "name": "",
          "type": "bytes32"
        }
      ],
      "stateMutability": "pure",
      "type": "function"
    },
    {
      "inputs": [
        {
          "internalType": "bytes32",
          "name": "questionId",
          "type": "bytes32"
        }
      ],
      "name": "getVoteByQuestionId",
      "outputs": [
        {
          "components": [
            {
              "internalType": "uint256",
              "name": "invalidCount",
              "type": "uint256"
            },
            {
              "internalType": "uint256",
              "name": "yesCount",
              "type": "uint256"
            },
            {
              "internalType": "uint256",
              "name": "noCount",
              "type": "uint256"
            },
            {
              "internalType": "uint256",
              "name": "voteCount",
              "type": "uint256"
            },
            {
              "internalType": "uint256",
              "name": "commitEndTimestamp",
              "type": "uint256"
            },
            {
              "internalType": "uint256",
              "name": "revealEndTimestamp",
              "type": "uint256"
            }
          ],
          "internalType": "struct Vote",
          "name": "",
          "type": "tuple"
        }
      ],
      "stateMutability": "view",
      "type": "function"
    },
    {
      "inputs": [
        {
          "internalType": "bytes32",
          "name": "",
          "type": "bytes32"
        }
      ],
      "name": "proposalByQuestionId",
      "outputs": [
        {
          "internalType": "address",
          "name": "proposer",
          "type": "address"
        },
        {
          "internalType": "enum Result",
          "name": "answer",
          "type": "uint8"
        },
        {
          "internalType": "uint256",
          "name": "timestamp",
          "type": "uint256"
        }
      ],
      "stateMutability": "view",
      "type": "function"
    },
    {
      "inputs": [
        {
          "internalType": "bytes32",
          "name": "questionId",
          "type": "bytes32"
        },
        {
          "internalType": "enum Result",
          "name": "answer",
          "type": "uint8"
        }
      ],
      "name": "proposeAnswer",
      "outputs": [],
      "stateMutability": "nonpayable",
      "type": "function"
    },
    {
      "inputs": [
        {
          "internalType": "bytes32",
          "name": "",
          "type": "bytes32"
        }
      ],
      "name": "questionById",
      "outputs": [
        {
          "internalType": "string",
          "name": "questionString",
          "type": "string"
        },
        {
          "internalType": "string",
          "name": "resolutionSource",
          "type": "string"
        },
        {
          "internalType": "uint256",
          "name": "expiry",
          "type": "uint256"
        },
        {
          "internalType": "bytes32",
          "name": "questionId",
          "type": "bytes32"
        },
        {
          "internalType": "enum Stage",
          "name": "stage",
          "type": "uint8"
        },
        {
          "internalType": "enum Result",
          "name": "result",
          "type": "uint8"
        }
      ],
      "stateMutability": "view",
      "type": "function"
    },
    {
      "inputs": [
        {
          "internalType": "uint256",
          "name": "",
          "type": "uint256"
        }
      ],
      "name": "questionIds",
      "outputs": [
        {
          "internalType": "bytes32",
          "name": "",
          "type": "bytes32"
        }
      ],
      "stateMutability": "view",
      "type": "function"
    },
    {
      "inputs": [
        {
          "internalType": "bytes32",
          "name": "questionId",
          "type": "bytes32"
        },
        {
          "internalType": "enum Result",
          "name": "_vote",
          "type": "uint8"
        },
        {
          "internalType": "string",
          "name": "password",
          "type": "string"
        }
      ],
      "name": "revealVote",
      "outputs": [],
      "stateMutability": "nonpayable",
      "type": "function"
    },
    {
      "inputs": [
        {
          "internalType": "bytes32",
          "name": "",
          "type": "bytes32"
        }
      ],
      "name": "voteByQuestionId",
      "outputs": [
        {
          "internalType": "uint256",
          "name": "invalidCount",
          "type": "uint256"
        },
        {
          "internalType": "uint256",
          "name": "yesCount",
          "type": "uint256"
        },
        {
          "internalType": "uint256",
          "name": "noCount",
          "type": "uint256"
        },
        {
          "internalType": "uint256",
          "name": "voteCount",
          "type": "uint256"
        },
        {
          "internalType": "uint256",
          "name": "commitEndTimestamp",
          "type": "uint256"
        },
        {
          "internalType": "uint256",
          "name": "revealEndTimestamp",
          "type": "uint256"
        }
      ],
      "stateMutability": "view",
      "type": "function"
    }
  ],
  "bytecode": {
    "object": "0x608060405234801561001057600080fd5b5060405161207638038061207683398101604081905261002f91610076565b600680546001600160a01b0319166001600160a01b0392909216919091179055678ac7230489e8000060075561025860088190556104b0600955600a819055600b556100a6565b60006020828403121561008857600080fd5b81516001600160a01b038116811461009f57600080fd5b9392505050565b611fc1806100b56000396000f3fe608060405234801561001057600080fd5b50600436106101585760003560e01c8063a5bbe22b116100c3578063df6d798b1161007c578063df6d798b1461039a578063e5a6b10f146103e6578063ed3dccaa14610411578063ed7b0da21461043a578063f034778314610443578063f23a033b1461045657600080fd5b8063a5bbe22b146102c8578063b1610d7e146102d1578063bcacc70a146102da578063bfafb30e146102e3578063c5be26a91461035a578063c6844d061461037a57600080fd5b8063516fa91011610115578063516fa9101461023a5780635a7461011461024d5780635d9032b9146102865780636af97c05146102995780637a37d9ee146102ac5780638b75d75a146102b557600080fd5b8063250551df1461015d5780632af9338e14610172578063369431ef146101905780633bbd2235146101b557806347d0da14146101c85780634b7d9b38146101db575b600080fd5b61017061016b366004611ac8565b610469565b005b61017a6105fd565b6040516101879190611c18565b60405180910390f35b6101a361019e366004611c7a565b6108ab565b60405161018796959493929190611c93565b6101706101c3366004611cec565b6109f7565b6101706101d6366004611c7a565b610ab3565b6101ee6101e9366004611c7a565b610cb7565b6040516101879190600060c082019050825182526020830151602083015260408301516040830152606083015160608301526080830151608083015260a083015160a083015292915050565b610170610248366004611d0e565b610d48565b61027861025b366004611d7b565b600460209081526000928352604080842090915290825290205481565b604051908152602001610187565b610170610294366004611db7565b610e86565b6101706102a7366004611c7a565b611076565b610278600a5481565b6101706102c3366004611c7a565b611216565b61027860085481565b61027860095481565b61027860075481565b61032d6102f1366004611c7a565b60036020528060005260406000206000915090508060000154908060010154908060020154908060030154908060040154908060050154905086565b604080519687526020870195909552938501929092526060840152608083015260a082015260c001610187565b61036d610368366004611c7a565b611605565b6040516101879190611de3565b61038d610388366004611c7a565b611691565b6040516101879190611e16565b6103d76103a8366004611c7a565b600160208190526000918252604090912080549101546001600160a01b03821691600160a01b900460ff169083565b60405161018793929190611e30565b6006546103f9906001600160a01b031681565b6040516001600160a01b039091168152602001610187565b6103f961041f366004611c7a565b6002602052600090815260409020546001600160a01b031681565b610278600b5481565b610278610451366004611c7a565b61188a565b610278610464366004611d0e565b6118ab565b600083815260036020526040902060058101541580159061048d5750428160050154115b6104d65760405162461bcd60e51b81526020600482015260156024820152744e6f7420696e20612072657665616c20706861736560581b60448201526064015b60405180910390fd5b60008481526004602090815260408083203384528252918290205491518291610503918791879101611e5b565b604051602081830303815290604052805190602001201461055b5760405162461bcd60e51b8152602060048201526012602482015271090c2e6d0cae640c8dedc4ee840dac2e8c6d60731b60448201526064016104cd565b600084600281111561056f5761056f611b6c565b036105945760018260000160008282546105899190611e99565b909155506105dd9050565b60018460028111156105a8576105a8611b6c565b036105c25760018260010160008282546105899190611e99565b60018260020160008282546105d79190611e99565b90915550505b505050600091825250600460209081526040808320338452909152812055565b60055460609060009067ffffffffffffffff81111561061e5761061e611a25565b60405190808252806020026020018201604052801561068757816020015b6106746040805160c0810182526060808252602082018190526000928201839052810182905290608082019081526020016000905290565b81526020019060019003908161063c5790505b50905060005b6005548110156108a557600080600583815481106106ad576106ad611eb1565b906000526020600020015481526020019081526020016000206040518060c00160405290816000820180546106e190611ec7565b80601f016020809104026020016040519081016040528092919081815260200182805461070d90611ec7565b801561075a5780601f1061072f5761010080835404028352916020019161075a565b820191906000526020600020905b81548152906001019060200180831161073d57829003601f168201915b5050505050815260200160018201805461077390611ec7565b80601f016020809104026020016040519081016040528092919081815260200182805461079f90611ec7565b80156107ec5780601f106107c1576101008083540402835291602001916107ec565b820191906000526020600020905b8154815290600101906020018083116107cf57829003601f168201915b5050509183525050600282015460208201526003808301546040830152600483015460609092019160ff169081111561082757610827611b6c565b600381111561083857610838611b6c565b81526020016004820160019054906101000a900460ff16600281111561086057610860611b6c565b600281111561087157610871611b6c565b8152505082828151811061088757610887611eb1565b6020026020010181905250808061089d90611efb565b91505061068d565b50919050565b6000602081905290815260409020805481906108c690611ec7565b80601f01602080910402602001604051908101604052809291908181526020018280546108f290611ec7565b801561093f5780601f106109145761010080835404028352916020019161093f565b820191906000526020600020905b81548152906001019060200180831161092257829003601f168201915b50505050509080600101805461095490611ec7565b80601f016020809104026020016040519081016040528092919081815260200182805461098090611ec7565b80156109cd5780601f106109a2576101008083540402835291602001916109cd565b820191906000526020600020905b8154815290600101906020018083116109b057829003601f168201915b50505050600283015460038401546004909401549293909290915060ff8082169161010090041686565b6000828152600360205260409020600481015415801590610a1b5750428160040154115b610a5f5760405162461bcd60e51b81526020600482015260156024820152744e6f7420696e206120636f6d6d697420706861736560581b60448201526064016104cd565b6000838152600460209081526040808320338452909152902054610a9557600381018054906000610a8f83611efb565b91905055505b50600091825260046020908152604080842033855290915290912055565b600081815260016020908152604080832081516060810190925280546001600160a01b03811683529192909190830190600160a01b900460ff166002811115610afe57610afe611b6c565b6002811115610b0f57610b0f611b6c565b815260200160018201548152505090506008548160400151610b319190611e99565b4211610b775760405162461bcd60e51b8152602060048201526015602482015274546f6f206561726c7920746f2066696e616c697a6560581b60448201526064016104cd565b6000828152600260205260409020546001600160a01b03168015610bec5760405162461bcd60e51b815260206004820152602660248201527f50726f706f73616c207761732064697370757465642c2063616e6e6f742066696044820152656e616c697a6560d01b60648201526084016104cd565b600083815260208181526040909120600481018054600360ff1982168117835593860151929361ffff1990911617610100836002811115610c2f57610c2f611b6c565b0217905550600654835160075460405163a9059cbb60e01b81526001600160a01b039283166004820152602481019190915291169063a9059cbb906044016020604051808303816000875af1158015610c8c573d6000803e3d6000fd5b505050506040513d601f19601f82011682018060405250810190610cb09190611f14565b5050505050565b610cf06040518060c001604052806000815260200160008152602001600081526020016000815260200160008152602001600081525090565b50600090815260036020818152604092839020835160c081018552815481526001820154928101929092526002810154938201939093529082015460608201526004820154608082015260059091015460a082015290565b6000610d558484846118ab565b905060006040518060c0016040528086815260200185815260200184815260200183815260200160006003811115610d8f57610d8f611b6c565b8152602001600090526000838152602081815260409091208251805193945084939192610dc192849290910190611978565b506020828101518051610dda9260018501920190611978565b50604082015181600201556060820151816003015560808201518160040160006101000a81548160ff02191690836003811115610e1957610e19611b6c565b021790555060a082015160048201805461ff001916610100836002811115610e4357610e43611b6c565b021790555050600580546001810182556000919091527f036b6384b5eca791c62761152d0c79bb0604c104a5fb6f4eb0703f3154bb3db001929092555050505050565b60008281526020819052604090206002810154421015610edc5760405162461bcd60e51b81526020600482015260116024820152704e6f74207965742061742065787069727960781b60448201526064016104cd565b6000600482015460ff166003811115610ef757610ef7611b6c565b14610f445760405162461bcd60e51b815260206004820181905260248201527f5175657374696f6e20616c7265616479206861766520612070726f706f73616c60448201526064016104cd565b6040518060600160405280336001600160a01b03168152602001836002811115610f7057610f70611b6c565b81524260209182015260008581526001825260409020825181546001600160a01b039091166001600160a01b031982168117835592840151919283916001600160a81b03191617600160a01b836002811115610fce57610fce611b6c565b02179055506040919091015160019182015560048201805460ff1916828002179055506006546007546040516323b872dd60e01b815233600482015230602482015260448101919091526001600160a01b03909116906323b872dd906064016020604051808303816000875af115801561104c573d6000803e3d6000fd5b505050506040513d601f19601f820116820180604052508101906110709190611f14565b50505050565b60008181526020819052604090206001600482015460ff16600381111561109f5761109f611b6c565b146110ec5760405162461bcd60e51b815260206004820152601b60248201527f5175657374696f6e2063616e6e6f74206265206469737075746564000000000060448201526064016104cd565b600082815260016020819052604090912060085491810154909161110f91611e99565b42106111535760405162461bcd60e51b8152602060048201526013602482015272746f6f206c61746520746f206469737075746560681b60448201526064016104cd565b6004828101805460ff19166002908117909155600085815260209190915260409081902080546001600160a01b0319163390811790915560065460075492516323b872dd60e01b81529384019190915230602484015260448301919091526001600160a01b0316906323b872dd906064016020604051808303816000875af11580156111e3573d6000803e3d6000fd5b505050506040513d601f19601f820116820180604052508101906112079190611f14565b50611211836118e1565b505050565b6000818152600360208181526040808420815160c081018352815481526001820154938101939093526002810154918301919091529182015460608201526004820154608082015260059091015460a082018190529091036112ce5760405162461bcd60e51b815260206004820152602b60248201527f5468657265206973206e6f206f6e676f696e6720766f746520666f722074686960448201526a399038bab2b9ba34b7b71760a91b60648201526084016104cd565b8060a0015142116113215760405162461bcd60e51b815260206004820152601b60248201527f566f74696e6720706572696f6420686173206e6f7420656e646564000000000060448201526064016104cd565b600082815260016020908152604080832081516060810190925280546001600160a01b03811683529192909190830190600160a01b900460ff16600281111561136c5761136c611b6c565b600281111561137d5761137d611b6c565b8152600191909101546020918201526000858152600282526040808220548284529181902090860151928601519394506001600160a01b039091169290911080156113cc575083516020850151115b156114c05760048101805461ff00191661010017905560015b836020015160028111156113fb576113fb611b6c565b0361149b5760065483516007546001600160a01b039092169163a9059cbb9190611426906002611f36565b6040516001600160e01b031960e085901b1681526001600160a01b03909216600483015260248201526044016020604051808303816000875af1158015611471573d6000803e3d6000fd5b505050506040513d601f19601f820116820180604052508101906114959190611f14565b506115f1565b6006546007546001600160a01b039091169063a9059cbb908490611426906002611f36565b836040015184602001511080156114db575083516040850151115b156114f85760048101805461ff00191661020017905560026113e5565b600654835160075460405163a9059cbb60e01b81526001600160a01b039283166004820152602481019190915291169063a9059cbb906044016020604051808303816000875af1158015611550573d6000803e3d6000fd5b505050506040513d601f19601f820116820180604052508101906115749190611f14565b5060065460075460405163a9059cbb60e01b81526001600160a01b038581166004830152602482019290925291169063a9059cbb906044016020604051808303816000875af11580156115cb573d6000803e3d6000fd5b505050506040513d601f19601f820116820180604052508101906115ef9190611f14565b505b600401805460ff1916600317905550505050565b604080516060810182526000808252602082018190529181019190915260008281526001602090815260409182902082516060810190935280546001600160a01b03811684529091830190600160a01b900460ff16600281111561166b5761166b611b6c565b600281111561167c5761167c611b6c565b81526020016001820154815250509050919050565b6116c96040805160c0810182526060808252602082018190526000928201839052810182905290608082019081526020016000905290565b60008281526020819052604090819020815160c081019092528054829082906116f190611ec7565b80601f016020809104026020016040519081016040528092919081815260200182805461171d90611ec7565b801561176a5780601f1061173f5761010080835404028352916020019161176a565b820191906000526020600020905b81548152906001019060200180831161174d57829003601f168201915b5050505050815260200160018201805461178390611ec7565b80601f01602080910402602001604051908101604052809291908181526020018280546117af90611ec7565b80156117fc5780601f106117d1576101008083540402835291602001916117fc565b820191906000526020600020905b8154815290600101906020018083116117df57829003601f168201915b5050509183525050600282015460208201526003808301546040830152600483015460609092019160ff169081111561183757611837611b6c565b600381111561184857611848611b6c565b81526020016004820160019054906101000a900460ff16600281111561187057611870611b6c565b600281111561188157611881611b6c565b90525092915050565b6005818154811061189a57600080fd5b600091825260209091200154905081565b60008383836040516020016118c293929190611f55565b6040516020818303038152906040528051906020012090509392505050565b60006040518060c0016040528060008152602001600081526020016000815260200160008152602001600a54426119189190611e99565b8152602001600b544261192b9190611e99565b9052600092835260036020818152604094859020835181559083015160018201559382015160028501556060820151908401556080810151600484015560a0015160059092019190915550565b82805461198490611ec7565b90600052602060002090601f0160209004810192826119a657600085556119ec565b82601f106119bf57805160ff19168380011785556119ec565b828001600101855582156119ec579182015b828111156119ec5782518255916020019190600101906119d1565b506119f89291506119fc565b5090565b5b808211156119f857600081556001016119fd565b803560038110611a2057600080fd5b919050565b634e487b7160e01b600052604160045260246000fd5b600082601f830112611a4c57600080fd5b813567ffffffffffffffff80821115611a6757611a67611a25565b604051601f8301601f19908116603f01168101908282118183101715611a8f57611a8f611a25565b81604052838152866020858801011115611aa857600080fd5b836020870160208301376000602085830101528094505050505092915050565b600080600060608486031215611add57600080fd5b83359250611aed60208501611a11565b9150604084013567ffffffffffffffff811115611b0957600080fd5b611b1586828701611a3b565b9150509250925092565b6000815180845260005b81811015611b4557602081850181015186830182015201611b29565b81811115611b57576000602083870101525b50601f01601f19169290920160200192915050565b634e487b7160e01b600052602160045260246000fd5b60048110611b9257611b92611b6c565b9052565b60038110611b9257611b92611b6c565b6000815160c08452611bbb60c0850182611b1f565b905060208301518482036020860152611bd48282611b1f565b91505060408301516040850152606083015160608501526080830151611bfd6080860182611b82565b5060a0830151611c1060a0860182611b96565b509392505050565b6000602080830181845280855180835260408601915060408160051b870101925083870160005b82811015611c6d57603f19888603018452611c5b858351611ba6565b94509285019290850190600101611c3f565b5092979650505050505050565b600060208284031215611c8c57600080fd5b5035919050565b60c081526000611ca660c0830189611b1f565b8281036020840152611cb88189611b1f565b915050856040830152846060830152611cd46080830185611b82565b611ce160a0830184611b96565b979650505050505050565b60008060408385031215611cff57600080fd5b50508035926020909101359150565b600080600060608486031215611d2357600080fd5b833567ffffffffffffffff80821115611d3b57600080fd5b611d4787838801611a3b565b94506020860135915080821115611d5d57600080fd5b50611d6a86828701611a3b565b925050604084013590509250925092565b60008060408385031215611d8e57600080fd5b8235915060208301356001600160a01b0381168114611dac57600080fd5b809150509250929050565b60008060408385031215611dca57600080fd5b82359150611dda60208401611a11565b90509250929050565b81516001600160a01b031681526020808301516060830191611e0790840182611b96565b50604092830151919092015290565b602081526000611e296020830184611ba6565b9392505050565b6001600160a01b038416815260608101611e4d6020830185611b96565b826040830152949350505050565b611e658184611b96565b604060208201526000611e7b6040830184611b1f565b949350505050565b634e487b7160e01b600052601160045260246000fd5b60008219821115611eac57611eac611e83565b500190565b634e487b7160e01b600052603260045260246000fd5b600181811c90821680611edb57607f821691505b6020821081036108a557634e487b7160e01b600052602260045260246000fd5b600060018201611f0d57611f0d611e83565b5060010190565b600060208284031215611f2657600080fd5b81518015158114611e2957600080fd5b6000816000190483118215151615611f5057611f50611e83565b500290565b606081526000611f686060830186611b1f565b8281036020840152611f7a8186611b1f565b91505082604083015294935050505056fea26469706673582212207465d7a7f4e244ee2b3fa4bcd7986fab1a5a7bbd3f8e1e2dbfa472d589d420a764736f6c634300080d0033",
    "linkReferences": {}
  }
}