{
  "abi": [
    {
      "inputs": [
        {
          "internalType": "address",
          "name": "_currency",
          "type": "address"
        }
      ],
      "stateMutability": "nonpayable",
      "type": "constructor"
    },
    {
      "inputs": [],
      "name": "BOND_AMOUNT",
      "outputs": [
        {
          "internalType": "uint256",
          "name": "",
          "type": "uint256"
        }
      ],
      "stateMutability": "view",
      "type": "function"
    },
    {
      "inputs": [],
      "name": "DISPUTE_PERIOD",
      "outputs": [
        {
          "internalType": "uint256",
          "name": "",
          "type": "uint256"
        }
      ],
      "stateMutability": "view",
      "type": "function"
    },
    {
      "inputs": [
        {
          "internalType": "string",
          "name": "questionString",
          "type": "string"
        },
        {
          "internalType": "uint256",
          "name": "expiry",
          "type": "uint256"
        }
      ],
      "name": "askQuestion",
      "outputs": [],
      "stateMutability": "nonpayable",
      "type": "function"
    },
    {
      "inputs": [],
      "name": "currency",
      "outputs": [
        {
          "internalType": "contract IERC20",
          "name": "",
          "type": "address"
        }
      ],
      "stateMutability": "view",
      "type": "function"
    },
    {
      "inputs": [
        {
          "internalType": "bytes32",
          "name": "questionId",
          "type": "bytes32"
        }
      ],
      "name": "disputeProposal",
      "outputs": [],
      "stateMutability": "nonpayable",
      "type": "function"
    },
    {
      "inputs": [
        {
          "internalType": "bytes32",
          "name": "",
          "type": "bytes32"
        }
      ],
      "name": "disputerByQuestionId",
      "outputs": [
        {
          "internalType": "address",
          "name": "",
          "type": "address"
        }
      ],
      "stateMutability": "view",
      "type": "function"
    },
    {
      "inputs": [
        {
          "internalType": "bytes32",
          "name": "questionId",
          "type": "bytes32"
        }
      ],
      "name": "getQuestionById",
      "outputs": [
        {
          "components": [
            {
              "internalType": "string",
              "name": "questionString",
              "type": "string"
            },
            {
              "internalType": "uint256",
              "name": "expiry",
              "type": "uint256"
            },
            {
              "internalType": "enum Stage",
              "name": "stage",
              "type": "uint8"
            },
            {
              "internalType": "enum Result",
              "name": "result",
              "type": "uint8"
            }
          ],
          "internalType": "struct Question",
          "name": "",
          "type": "tuple"
        }
      ],
      "stateMutability": "view",
      "type": "function"
    },
    {
      "inputs": [
        {
          "internalType": "string",
          "name": "questionString",
          "type": "string"
        },
        {
          "internalType": "uint256",
          "name": "expiry",
          "type": "uint256"
        }
      ],
      "name": "getQuestionId",
      "outputs": [
        {
          "internalType": "bytes32",
          "name": "",
          "type": "bytes32"
        }
      ],
      "stateMutability": "pure",
      "type": "function"
    },
    {
      "inputs": [
        {
          "internalType": "bytes32",
          "name": "",
          "type": "bytes32"
        }
      ],
      "name": "proposalByQuestionId",
      "outputs": [
        {
          "internalType": "address",
          "name": "proposer",
          "type": "address"
        },
        {
          "internalType": "uint256",
          "name": "answer",
          "type": "uint256"
        },
        {
          "internalType": "uint256",
          "name": "timestamp",
          "type": "uint256"
        }
      ],
      "stateMutability": "view",
      "type": "function"
    },
    {
      "inputs": [
        {
          "internalType": "bytes32",
          "name": "questionId",
          "type": "bytes32"
        },
        {
          "internalType": "uint256",
          "name": "answer",
          "type": "uint256"
        }
      ],
      "name": "proposeAnswer",
      "outputs": [],
      "stateMutability": "nonpayable",
      "type": "function"
    },
    {
      "inputs": [
        {
          "internalType": "bytes32",
          "name": "",
          "type": "bytes32"
        }
      ],
      "name": "questionById",
      "outputs": [
        {
          "internalType": "string",
          "name": "questionString",
          "type": "string"
        },
        {
          "internalType": "uint256",
          "name": "expiry",
          "type": "uint256"
        },
        {
          "internalType": "enum Stage",
          "name": "stage",
          "type": "uint8"
        },
        {
          "internalType": "enum Result",
          "name": "result",
          "type": "uint8"
        }
      ],
      "stateMutability": "view",
      "type": "function"
    }
  ],
  "bytecode": {
    "object": "0x608060405234801561001057600080fd5b50604051610c88380380610c8883398101604081905261002f91610068565b600380546001600160a01b0319166001600160a01b0392909216919091179055683635c9adc5dea0000060045562015180600555610098565b60006020828403121561007a57600080fd5b81516001600160a01b038116811461009157600080fd5b9392505050565b610be1806100a76000396000f3fe608060405234801561001057600080fd5b50600436106100a95760003560e01c8063c6844d0611610071578063c6844d0614610122578063cc3b43b114610142578063df6d798b14610155578063e3f541ee146101b4578063e5a6b10f146101c7578063ed3dccaa146101f257600080fd5b8063369431ef146100ae5780634c8714bf146100da5780636af97c05146100ef578063a5bbe22b14610102578063bcacc70a14610119575b600080fd5b6100c16100bc3660046108da565b61021b565b6040516100d19493929190610977565b60405180910390f35b6100ed6100e83660046109b9565b6102d2565b005b6100ed6100fd3660046108da565b61047e565b61010b60055481565b6040519081526020016100d1565b61010b60045481565b6101356101303660046108da565b6105cc565b6040516100d191906109db565b61010b610150366004610a4c565b6106f9565b61018f6101633660046108da565b60016020819052600091825260409091208054918101546002909101546001600160a01b039092169183565b604080516001600160a01b0390941684526020840192909252908201526060016100d1565b6100ed6101c2366004610a4c565b61072c565b6003546101da906001600160a01b031681565b6040516001600160a01b0390911681526020016100d1565b6101da6102003660046108da565b6002602052600090815260409020546001600160a01b031681565b60006020819052908152604090208054819061023690610b01565b80601f016020809104026020016040519081016040528092919081815260200182805461026290610b01565b80156102af5780601f10610284576101008083540402835291602001916102af565b820191906000526020600020905b81548152906001019060200180831161029257829003601f168201915b50505050600183015460029093015491929160ff80821692506101009091041684565b6000828152602081905260409020600181015442101561032d5760405162461bcd60e51b81526020600482015260116024820152704e6f74207965742061742065787069727960781b60448201526064015b60405180910390fd5b600060028083015460ff169081111561034857610348610940565b146103955760405162461bcd60e51b815260206004820181905260248201527f5175657374696f6e20616c7265616479206861766520612070726f706f73616c6044820152606401610324565b60408051606081018252338152602080820185815242838501908152600088815260019384905294909420925183546001600160a01b0319166001600160a01b03909116178355518282015591516002918201558201805460ff191682800217905550600354600480546040516323b872dd60e01b8152339281019290925230602483015260448201526001600160a01b03909116906323b872dd906064015b6020604051808303816000875af1158015610454573d6000803e3d6000fd5b505050506040513d601f19601f820116820180604052508101906104789190610b3b565b50505050565b6000818152602081905260409020600160028083015460ff16908111156104a7576104a7610940565b146104f45760405162461bcd60e51b815260206004820152601b60248201527f5175657374696f6e2063616e6e6f7420626520646973707574656400000000006044820152606401610324565b600082815260016020526040902060028101546005546105149042610b64565b106105575760405162461bcd60e51b8152602060048201526013602482015272746f6f206c61746520746f206469737075746560681b6044820152606401610324565b6002828101805460ff191682179055600084815260209190915260409081902080546001600160a01b031916339081179091556003546004805493516323b872dd60e01b81529081019290925230602483015260448201929092526001600160a01b03909116906323b872dd90606401610435565b6105d4610809565b600082815260208190526040908190208151608081019092528054829082906105fc90610b01565b80601f016020809104026020016040519081016040528092919081815260200182805461062890610b01565b80156106755780601f1061064a57610100808354040283529160200191610675565b820191906000526020600020905b81548152906001019060200180831161065857829003601f168201915b50505091835250506001820154602082015260028083015460409092019160ff16908111156106a6576106a6610940565b60028111156106b7576106b7610940565b81526020016002820160019054906101000a900460ff1660028111156106df576106df610940565b60028111156106f0576106f0610940565b90525092915050565b6000828260405160200161070e929190610b89565b60405160208183030381529060405280519060200120905092915050565b600061073883836106f9565b9050600060405180608001604052808581526020018481526020016000600281111561076657610766610940565b815260200160009052600083815260208181526040909120825180519394508493919261079892849290910190610841565b506020820151816001015560408201518160020160006101000a81548160ff021916908360028111156107cd576107cd610940565b021790555060608201518160020160016101000a81548160ff021916908360028111156107fc576107fc610940565b0217905550505050505050565b604051806080016040528060608152602001600081526020016000600281111561083557610835610940565b81526020016000905290565b82805461084d90610b01565b90600052602060002090601f01602090048101928261086f57600085556108b5565b82601f1061088857805160ff19168380011785556108b5565b828001600101855582156108b5579182015b828111156108b557825182559160200191906001019061089a565b506108c19291506108c5565b5090565b5b808211156108c157600081556001016108c6565b6000602082840312156108ec57600080fd5b5035919050565b6000815180845260005b81811015610919576020818501810151868301820152016108fd565b8181111561092b576000602083870101525b50601f01601f19169290920160200192915050565b634e487b7160e01b600052602160045260246000fd5b6003811061097457634e487b7160e01b600052602160045260246000fd5b50565b60808152600061098a60808301876108f3565b905084602083015261099b84610956565b8360408301526109aa83610956565b82606083015295945050505050565b600080604083850312156109cc57600080fd5b50508035926020909101359150565b6020815260008251608060208401526109f760a08401826108f3565b9050602084015160408401526040840151610a1181610956565b806060850152506060840151610a2681610956565b6080939093019290925250919050565b634e487b7160e01b600052604160045260246000fd5b60008060408385031215610a5f57600080fd5b823567ffffffffffffffff80821115610a7757600080fd5b818501915085601f830112610a8b57600080fd5b813581811115610a9d57610a9d610a36565b604051601f8201601f19908116603f01168101908382118183101715610ac557610ac5610a36565b81604052828152886020848701011115610ade57600080fd5b826020860160208301376000602093820184015298969091013596505050505050565b600181811c90821680610b1557607f821691505b602082108103610b3557634e487b7160e01b600052602260045260246000fd5b50919050565b600060208284031215610b4d57600080fd5b81518015158114610b5d57600080fd5b9392505050565b600082821015610b8457634e487b7160e01b600052601160045260246000fd5b500390565b604081526000610b9c60408301856108f3565b9050826020830152939250505056fea26469706673582212201808b6da4a89051419b6f84dc627b34dd876761aff62689064e79f91c931888f64736f6c634300080d0033",
    "linkReferences": {}
  }
}