{
  "abi": [
    {
      "inputs": [
        {
          "internalType": "address",
          "name": "_currency",
          "type": "address"
        }
      ],
      "stateMutability": "nonpayable",
      "type": "constructor"
    },
    {
      "inputs": [],
      "name": "BOND_AMOUNT",
      "outputs": [
        {
          "internalType": "uint256",
          "name": "",
          "type": "uint256"
        }
      ],
      "stateMutability": "view",
      "type": "function"
    },
    {
      "inputs": [],
      "name": "DISPUTE_PERIOD",
      "outputs": [
        {
          "internalType": "uint256",
          "name": "",
          "type": "uint256"
        }
      ],
      "stateMutability": "view",
      "type": "function"
    },
    {
      "inputs": [],
      "name": "VOTING_PERIOD",
      "outputs": [
        {
          "internalType": "uint256",
          "name": "",
          "type": "uint256"
        }
      ],
      "stateMutability": "view",
      "type": "function"
    },
    {
      "inputs": [
        {
          "internalType": "string",
          "name": "questionString",
          "type": "string"
        },
        {
          "internalType": "uint256",
          "name": "expiry",
          "type": "uint256"
        }
      ],
      "name": "askQuestion",
      "outputs": [],
      "stateMutability": "nonpayable",
      "type": "function"
    },
    {
      "inputs": [],
      "name": "currency",
      "outputs": [
        {
          "internalType": "contract IERC20",
          "name": "",
          "type": "address"
        }
      ],
      "stateMutability": "view",
      "type": "function"
    },
    {
      "inputs": [
        {
          "internalType": "bytes32",
          "name": "questionId",
          "type": "bytes32"
        }
      ],
      "name": "disputeProposal",
      "outputs": [],
      "stateMutability": "nonpayable",
      "type": "function"
    },
    {
      "inputs": [
        {
          "internalType": "bytes32",
          "name": "",
          "type": "bytes32"
        }
      ],
      "name": "disputerByQuestionId",
      "outputs": [
        {
          "internalType": "address",
          "name": "",
          "type": "address"
        }
      ],
      "stateMutability": "view",
      "type": "function"
    },
    {
      "inputs": [
        {
          "internalType": "bytes32",
          "name": "questionId",
          "type": "bytes32"
        }
      ],
      "name": "finalizeProposal",
      "outputs": [],
      "stateMutability": "nonpayable",
      "type": "function"
    },
    {
      "inputs": [
        {
          "internalType": "bytes32",
          "name": "questionId",
          "type": "bytes32"
        }
      ],
      "name": "finalizeVote",
      "outputs": [],
      "stateMutability": "nonpayable",
      "type": "function"
    },
    {
      "inputs": [
        {
          "internalType": "bytes32",
          "name": "questionId",
          "type": "bytes32"
        }
      ],
      "name": "getProposalByQuestionId",
      "outputs": [
        {
          "components": [
            {
              "internalType": "address",
              "name": "proposer",
              "type": "address"
            },
            {
              "internalType": "enum Result",
              "name": "answer",
              "type": "uint8"
            },
            {
              "internalType": "uint256",
              "name": "timestamp",
              "type": "uint256"
            }
          ],
          "internalType": "struct Proposal",
          "name": "",
          "type": "tuple"
        }
      ],
      "stateMutability": "view",
      "type": "function"
    },
    {
      "inputs": [
        {
          "internalType": "bytes32",
          "name": "questionId",
          "type": "bytes32"
        }
      ],
      "name": "getQuestionById",
      "outputs": [
        {
          "components": [
            {
              "internalType": "string",
              "name": "questionString",
              "type": "string"
            },
            {
              "internalType": "uint256",
              "name": "expiry",
              "type": "uint256"
            },
            {
              "internalType": "enum Stage",
              "name": "stage",
              "type": "uint8"
            },
            {
              "internalType": "enum Result",
              "name": "result",
              "type": "uint8"
            }
          ],
          "internalType": "struct Question",
          "name": "",
          "type": "tuple"
        }
      ],
      "stateMutability": "view",
      "type": "function"
    },
    {
      "inputs": [
        {
          "internalType": "string",
          "name": "questionString",
          "type": "string"
        },
        {
          "internalType": "uint256",
          "name": "expiry",
          "type": "uint256"
        }
      ],
      "name": "getQuestionId",
      "outputs": [
        {
          "internalType": "bytes32",
          "name": "",
          "type": "bytes32"
        }
      ],
      "stateMutability": "pure",
      "type": "function"
    },
    {
      "inputs": [
        {
          "internalType": "bytes32",
          "name": "questionId",
          "type": "bytes32"
        },
        {
          "internalType": "enum Result",
          "name": "answer",
          "type": "uint8"
        }
      ],
      "name": "makeVote",
      "outputs": [],
      "stateMutability": "nonpayable",
      "type": "function"
    },
    {
      "inputs": [
        {
          "internalType": "bytes32",
          "name": "",
          "type": "bytes32"
        }
      ],
      "name": "proposalByQuestionId",
      "outputs": [
        {
          "internalType": "address",
          "name": "proposer",
          "type": "address"
        },
        {
          "internalType": "enum Result",
          "name": "answer",
          "type": "uint8"
        },
        {
          "internalType": "uint256",
          "name": "timestamp",
          "type": "uint256"
        }
      ],
      "stateMutability": "view",
      "type": "function"
    },
    {
      "inputs": [
        {
          "internalType": "bytes32",
          "name": "questionId",
          "type": "bytes32"
        },
        {
          "internalType": "enum Result",
          "name": "answer",
          "type": "uint8"
        }
      ],
      "name": "proposeAnswer",
      "outputs": [],
      "stateMutability": "nonpayable",
      "type": "function"
    },
    {
      "inputs": [
        {
          "internalType": "bytes32",
          "name": "",
          "type": "bytes32"
        }
      ],
      "name": "questionById",
      "outputs": [
        {
          "internalType": "string",
          "name": "questionString",
          "type": "string"
        },
        {
          "internalType": "uint256",
          "name": "expiry",
          "type": "uint256"
        },
        {
          "internalType": "enum Stage",
          "name": "stage",
          "type": "uint8"
        },
        {
          "internalType": "enum Result",
          "name": "result",
          "type": "uint8"
        }
      ],
      "stateMutability": "view",
      "type": "function"
    },
    {
      "inputs": [
        {
          "internalType": "bytes32",
          "name": "",
          "type": "bytes32"
        }
      ],
      "name": "voteByQuestionId",
      "outputs": [
        {
          "internalType": "uint256",
          "name": "invalidCount",
          "type": "uint256"
        },
        {
          "internalType": "uint256",
          "name": "yesCount",
          "type": "uint256"
        },
        {
          "internalType": "uint256",
          "name": "noCount",
          "type": "uint256"
        },
        {
          "internalType": "uint256",
          "name": "endTimestamp",
          "type": "uint256"
        }
      ],
      "stateMutability": "view",
      "type": "function"
    }
  ],
  "bytecode": {
    "object": "0x608060405234801561001057600080fd5b506040516113a93803806113a983398101604081905261002f9161006e565b600480546001600160a01b0319166001600160a01b0392909216919091179055678ac7230489e80000600555620151806006556202a30060075561009e565b60006020828403121561008057600080fd5b81516001600160a01b038116811461009757600080fd5b9392505050565b6112fc806100ad6000396000f3fe608060405234801561001057600080fd5b506004361061010b5760003560e01c8063bcacc70a116100a2578063cc3b43b111610071578063cc3b43b11461025d578063df6d798b14610270578063e3f541ee146102bc578063e5a6b10f146102cf578063ed3dccaa146102fa57600080fd5b8063bcacc70a146101bd578063bfafb30e146101c6578063c5be26a91461021d578063c6844d061461023d57600080fd5b80636af97c05116100de5780636af97c05146101775780638b75d75a1461018a578063a5bbe22b1461019d578063b1610d7e146101b457600080fd5b806321f98a1514610110578063369431ef1461012557806347d0da14146101515780635d9032b914610164575b600080fd5b61012361011e366004610f40565b610323565b005b610138610133366004610f74565b610439565b6040516101489493929190611014565b60405180910390f35b61012361015f366004610f74565b6104f0565b610123610172366004610f40565b61067d565b610123610185366004610f74565b61086b565b610123610198366004610f74565b610a03565b6101a660065481565b604051908152602001610148565b6101a660075481565b6101a660055481565b6101fd6101d4366004610f74565b600360208190526000918252604090912080546001820154600283015492909301549092919084565b604080519485526020850193909352918301526060820152608001610148565b61023061022b366004610f74565b610b3d565b6040516101489190611052565b61025061024b366004610f74565b610bc9565b6040516101489190611085565b6101a661026b3660046110f0565b610cf6565b6102ad61027e366004610f74565b600160208190526000918252604090912080549101546001600160a01b03821691600160a01b900460ff169083565b604051610148939291906111a5565b6101236102ca3660046110f0565b610d29565b6004546102e2906001600160a01b031681565b6040516001600160a01b039091168152602001610148565b6102e2610308366004610f74565b6002602052600090815260409020546001600160a01b031681565b600082815260036020819052604082209081015490910361035f5760405162461bcd60e51b8152600401610356906111d0565b60405180910390fd5b806003015442106103b25760405162461bcd60e51b815260206004820152601760248201527f566f74696e6720706572696f642068617320656e6465640000000000000000006044820152606401610356565b60008260028111156103c6576103c6610fda565b036103eb5760018160000160008282546103e0919061121b565b909155506104349050565b60018260028111156103ff576103ff610fda565b036104195760018160010160008282546103e0919061121b565b600181600201600082825461042e919061121b565b90915550505b505050565b60006020819052908152604090208054819061045490611241565b80601f016020809104026020016040519081016040528092919081815260200182805461048090611241565b80156104cd5780601f106104a2576101008083540402835291602001916104cd565b820191906000526020600020905b8154815290600101906020018083116104b057829003601f168201915b50505050600183015460029093015491929160ff80821692506101009091041684565b600081815260016020908152604080832081516060810190925280546001600160a01b03811683529192909190830190600160a01b900460ff16600281111561053b5761053b610fda565b600281111561054c5761054c610fda565b81526020016001820154815250509050600654816040015161056e919061121b565b42116105b45760405162461bcd60e51b8152602060048201526015602482015274546f6f206561726c7920746f2066696e616c697a6560581b6044820152606401610356565b6000828152600260205260409020546001600160a01b031680156106295760405162461bcd60e51b815260206004820152602660248201527f50726f706f73616c207761732064697370757465642c2063616e6e6f742066696044820152656e616c697a6560d01b6064820152608401610356565b60008381526020818152604090912060028082018054600360ff19821681178355948701519394919261ffff199091169091179061010090849081111561067257610672610fda565b021790555050505050565b600082815260208190526040902060018101544210156106d35760405162461bcd60e51b81526020600482015260116024820152704e6f74207965742061742065787069727960781b6044820152606401610356565b6000600282015460ff1660038111156106ee576106ee610fda565b1461073b5760405162461bcd60e51b815260206004820181905260248201527f5175657374696f6e20616c7265616479206861766520612070726f706f73616c6044820152606401610356565b6040518060600160405280336001600160a01b0316815260200183600281111561076757610767610fda565b81524260209182015260008581526001825260409020825181546001600160a01b039091166001600160a01b031982168117835592840151919283916001600160a81b03191617600160a01b8360028111156107c5576107c5610fda565b02179055506040919091015160019182015560028201805460ff191682800217905550600480546005546040516323b872dd60e01b8152339381019390935230602484015260448301526001600160a01b0316906323b872dd906064016020604051808303816000875af1158015610841573d6000803e3d6000fd5b505050506040513d601f19601f82011682018060405250810190610865919061127b565b50505050565b60008181526020819052604090206001600282015460ff16600381111561089457610894610fda565b146108e15760405162461bcd60e51b815260206004820152601b60248201527f5175657374696f6e2063616e6e6f7420626520646973707574656400000000006044820152606401610356565b60008281526001602081905260409091206006549181015490916109049161121b565b42106109485760405162461bcd60e51b8152602060048201526013602482015272746f6f206c61746520746f206469737075746560681b6044820152606401610356565b6002828101805460ff191682179055600084815260209190915260409081902080546001600160a01b031916339081179091556004805460055493516323b872dd60e01b81529182019290925230602482015260448101929092526001600160a01b0316906323b872dd906064016020604051808303816000875af11580156109d5573d6000803e3d6000fd5b505050506040513d601f19601f820116820180604052508101906109f9919061127b565b5061043483610e06565b60008181526003602081815260408084208151608081018352815481526001820154938101939093526002810154918301919091529091015460608201819052909103610a625760405162461bcd60e51b8152600401610356906111d0565b80606001514211610ab55760405162461bcd60e51b815260206004820152601b60248201527f566f74696e6720706572696f6420686173206e6f7420656e64656400000000006044820152606401610356565b600082815260208181526040918290209183015190830151118015610ade575081516020830151115b15610af95760028101805461ff001916610100179055610b2b565b81604001518260200151108015610b14575081516040830151115b15610b2b5760028101805461ff0019166102001790555b600201805460ff191660031790555050565b604080516060810182526000808252602082018190529181019190915260008281526001602090815260409182902082516060810190935280546001600160a01b03811684529091830190600160a01b900460ff166002811115610ba357610ba3610fda565b6002811115610bb457610bb4610fda565b81526020016001820154815250509050919050565b610bd1610e6f565b60008281526020819052604090819020815160808101909252805482908290610bf990611241565b80601f0160208091040260200160405190810160405280929190818152602001828054610c2590611241565b8015610c725780601f10610c4757610100808354040283529160200191610c72565b820191906000526020600020905b815481529060010190602001808311610c5557829003601f168201915b505050918352505060018201546020820152600282015460409091019060ff166003811115610ca357610ca3610fda565b6003811115610cb457610cb4610fda565b81526020016002820160019054906101000a900460ff166002811115610cdc57610cdc610fda565b6002811115610ced57610ced610fda565b90525092915050565b60008282604051602001610d0b9291906112a4565b60405160208183030381529060405280519060200120905092915050565b6000610d358383610cf6565b90506000604051806080016040528085815260200184815260200160006003811115610d6357610d63610fda565b8152602001600090526000838152602081815260409091208251805193945084939192610d9592849290910190610ea7565b506020820151816001015560408201518160020160006101000a81548160ff02191690836003811115610dca57610dca610fda565b021790555060608201518160020160016101000a81548160ff02191690836002811115610df957610df9610fda565b0217905550505050505050565b6000604051806080016040528060008152602001600081526020016000815260200160075442610e36919061121b565b90526000928352600360208181526040948590208351815590830151600182015593820151600285015560609091015192019190915550565b6040518060800160405280606081526020016000815260200160006003811115610e9b57610e9b610fda565b81526020016000905290565b828054610eb390611241565b90600052602060002090601f016020900481019282610ed55760008555610f1b565b82601f10610eee57805160ff1916838001178555610f1b565b82800160010185558215610f1b579182015b82811115610f1b578251825591602001919060010190610f00565b50610f27929150610f2b565b5090565b5b80821115610f275760008155600101610f2c565b60008060408385031215610f5357600080fd5b82359150602083013560038110610f6957600080fd5b809150509250929050565b600060208284031215610f8657600080fd5b5035919050565b6000815180845260005b81811015610fb357602081850181015186830182015201610f97565b81811115610fc5576000602083870101525b50601f01601f19169290920160200192915050565b634e487b7160e01b600052602160045260246000fd5b6004811061100057611000610fda565b9052565b6003811061100057611000610fda565b6080815260006110276080830187610f8d565b905084602083015261103c6040830185610ff0565b6110496060830184611004565b95945050505050565b81516001600160a01b03168152602080830151606083019161107690840182611004565b50604092830151919092015290565b6020815260008251608060208401526110a160a0840182610f8d565b90506020840151604084015260408401516110bf6060850182610ff0565b5060608401516110d26080850182611004565b509392505050565b634e487b7160e01b600052604160045260246000fd5b6000806040838503121561110357600080fd5b823567ffffffffffffffff8082111561111b57600080fd5b818501915085601f83011261112f57600080fd5b813581811115611141576111416110da565b604051601f8201601f19908116603f01168101908382118183101715611169576111696110da565b8160405282815288602084870101111561118257600080fd5b826020860160208301376000602093820184015298969091013596505050505050565b6001600160a01b0384168152606081016111c26020830185611004565b826040830152949350505050565b6020808252602b908201527f5468657265206973206e6f206f6e676f696e6720766f746520666f722074686960408201526a399038bab2b9ba34b7b71760a91b606082015260800190565b6000821982111561123c57634e487b7160e01b600052601160045260246000fd5b500190565b600181811c9082168061125557607f821691505b60208210810361127557634e487b7160e01b600052602260045260246000fd5b50919050565b60006020828403121561128d57600080fd5b8151801515811461129d57600080fd5b9392505050565b6040815260006112b76040830185610f8d565b9050826020830152939250505056fea2646970667358221220c76f7e95eb36b82c07828e10eb967e3bf552761a43896a24d5215bb6f7125d3264736f6c634300080d0033",
    "linkReferences": {}
  }
}