{
  "abi": [
    {
      "inputs": [
        {
          "internalType": "address",
          "name": "_currency",
          "type": "address"
        }
      ],
      "stateMutability": "nonpayable",
      "type": "constructor"
    },
    {
      "inputs": [],
      "name": "BOND_AMOUNT",
      "outputs": [
        {
          "internalType": "uint256",
          "name": "",
          "type": "uint256"
        }
      ],
      "stateMutability": "view",
      "type": "function"
    },
    {
      "inputs": [],
      "name": "DISPUTE_PERIOD",
      "outputs": [
        {
          "internalType": "uint256",
          "name": "",
          "type": "uint256"
        }
      ],
      "stateMutability": "view",
      "type": "function"
    },
    {
      "inputs": [],
      "name": "VOTING_PERIOD",
      "outputs": [
        {
          "internalType": "uint256",
          "name": "",
          "type": "uint256"
        }
      ],
      "stateMutability": "view",
      "type": "function"
    },
    {
      "inputs": [
        {
          "internalType": "string",
          "name": "questionString",
          "type": "string"
        },
        {
          "internalType": "string",
          "name": "resolutionSource",
          "type": "string"
        },
        {
          "internalType": "uint256",
          "name": "expiry",
          "type": "uint256"
        }
      ],
      "name": "askQuestion",
      "outputs": [],
      "stateMutability": "nonpayable",
      "type": "function"
    },
    {
      "inputs": [],
      "name": "currency",
      "outputs": [
        {
          "internalType": "contract IERC20",
          "name": "",
          "type": "address"
        }
      ],
      "stateMutability": "view",
      "type": "function"
    },
    {
      "inputs": [
        {
          "internalType": "bytes32",
          "name": "questionId",
          "type": "bytes32"
        }
      ],
      "name": "disputeProposal",
      "outputs": [],
      "stateMutability": "nonpayable",
      "type": "function"
    },
    {
      "inputs": [
        {
          "internalType": "bytes32",
          "name": "",
          "type": "bytes32"
        }
      ],
      "name": "disputerByQuestionId",
      "outputs": [
        {
          "internalType": "address",
          "name": "",
          "type": "address"
        }
      ],
      "stateMutability": "view",
      "type": "function"
    },
    {
      "inputs": [
        {
          "internalType": "bytes32",
          "name": "questionId",
          "type": "bytes32"
        }
      ],
      "name": "finalizeProposal",
      "outputs": [],
      "stateMutability": "nonpayable",
      "type": "function"
    },
    {
      "inputs": [
        {
          "internalType": "bytes32",
          "name": "questionId",
          "type": "bytes32"
        }
      ],
      "name": "finalizeVote",
      "outputs": [],
      "stateMutability": "nonpayable",
      "type": "function"
    },
    {
      "inputs": [],
      "name": "getAllQuestions",
      "outputs": [
        {
          "components": [
            {
              "internalType": "string",
              "name": "questionString",
              "type": "string"
            },
            {
              "internalType": "string",
              "name": "resolutionSource",
              "type": "string"
            },
            {
              "internalType": "uint256",
              "name": "expiry",
              "type": "uint256"
            },
            {
              "internalType": "bytes32",
              "name": "questionId",
              "type": "bytes32"
            },
            {
              "internalType": "enum Stage",
              "name": "stage",
              "type": "uint8"
            },
            {
              "internalType": "enum Result",
              "name": "result",
              "type": "uint8"
            }
          ],
          "internalType": "struct Question[]",
          "name": "",
          "type": "tuple[]"
        }
      ],
      "stateMutability": "view",
      "type": "function"
    },
    {
      "inputs": [
        {
          "internalType": "bytes32",
          "name": "questionId",
          "type": "bytes32"
        }
      ],
      "name": "getProposalByQuestionId",
      "outputs": [
        {
          "components": [
            {
              "internalType": "address",
              "name": "proposer",
              "type": "address"
            },
            {
              "internalType": "enum Result",
              "name": "answer",
              "type": "uint8"
            },
            {
              "internalType": "uint256",
              "name": "timestamp",
              "type": "uint256"
            }
          ],
          "internalType": "struct Proposal",
          "name": "",
          "type": "tuple"
        }
      ],
      "stateMutability": "view",
      "type": "function"
    },
    {
      "inputs": [
        {
          "internalType": "bytes32",
          "name": "questionId",
          "type": "bytes32"
        }
      ],
      "name": "getQuestionById",
      "outputs": [
        {
          "components": [
            {
              "internalType": "string",
              "name": "questionString",
              "type": "string"
            },
            {
              "internalType": "string",
              "name": "resolutionSource",
              "type": "string"
            },
            {
              "internalType": "uint256",
              "name": "expiry",
              "type": "uint256"
            },
            {
              "internalType": "bytes32",
              "name": "questionId",
              "type": "bytes32"
            },
            {
              "internalType": "enum Stage",
              "name": "stage",
              "type": "uint8"
            },
            {
              "internalType": "enum Result",
              "name": "result",
              "type": "uint8"
            }
          ],
          "internalType": "struct Question",
          "name": "",
          "type": "tuple"
        }
      ],
      "stateMutability": "view",
      "type": "function"
    },
    {
      "inputs": [
        {
          "internalType": "string",
          "name": "questionString",
          "type": "string"
        },
        {
          "internalType": "string",
          "name": "resolutionSource",
          "type": "string"
        },
        {
          "internalType": "uint256",
          "name": "expiry",
          "type": "uint256"
        }
      ],
      "name": "getQuestionId",
      "outputs": [
        {
          "internalType": "bytes32",
          "name": "",
          "type": "bytes32"
        }
      ],
      "stateMutability": "pure",
      "type": "function"
    },
    {
      "inputs": [
        {
          "internalType": "bytes32",
          "name": "questionId",
          "type": "bytes32"
        },
        {
          "internalType": "enum Result",
          "name": "answer",
          "type": "uint8"
        }
      ],
      "name": "makeVote",
      "outputs": [],
      "stateMutability": "nonpayable",
      "type": "function"
    },
    {
      "inputs": [
        {
          "internalType": "bytes32",
          "name": "",
          "type": "bytes32"
        }
      ],
      "name": "proposalByQuestionId",
      "outputs": [
        {
          "internalType": "address",
          "name": "proposer",
          "type": "address"
        },
        {
          "internalType": "enum Result",
          "name": "answer",
          "type": "uint8"
        },
        {
          "internalType": "uint256",
          "name": "timestamp",
          "type": "uint256"
        }
      ],
      "stateMutability": "view",
      "type": "function"
    },
    {
      "inputs": [
        {
          "internalType": "bytes32",
          "name": "questionId",
          "type": "bytes32"
        },
        {
          "internalType": "enum Result",
          "name": "answer",
          "type": "uint8"
        }
      ],
      "name": "proposeAnswer",
      "outputs": [],
      "stateMutability": "nonpayable",
      "type": "function"
    },
    {
      "inputs": [
        {
          "internalType": "bytes32",
          "name": "",
          "type": "bytes32"
        }
      ],
      "name": "questionById",
      "outputs": [
        {
          "internalType": "string",
          "name": "questionString",
          "type": "string"
        },
        {
          "internalType": "string",
          "name": "resolutionSource",
          "type": "string"
        },
        {
          "internalType": "uint256",
          "name": "expiry",
          "type": "uint256"
        },
        {
          "internalType": "bytes32",
          "name": "questionId",
          "type": "bytes32"
        },
        {
          "internalType": "enum Stage",
          "name": "stage",
          "type": "uint8"
        },
        {
          "internalType": "enum Result",
          "name": "result",
          "type": "uint8"
        }
      ],
      "stateMutability": "view",
      "type": "function"
    },
    {
      "inputs": [
        {
          "internalType": "uint256",
          "name": "",
          "type": "uint256"
        }
      ],
      "name": "questionIds",
      "outputs": [
        {
          "internalType": "bytes32",
          "name": "",
          "type": "bytes32"
        }
      ],
      "stateMutability": "view",
      "type": "function"
    },
    {
      "inputs": [
        {
          "internalType": "bytes32",
          "name": "",
          "type": "bytes32"
        }
      ],
      "name": "voteByQuestionId",
      "outputs": [
        {
          "internalType": "uint256",
          "name": "invalidCount",
          "type": "uint256"
        },
        {
          "internalType": "uint256",
          "name": "yesCount",
          "type": "uint256"
        },
        {
          "internalType": "uint256",
          "name": "noCount",
          "type": "uint256"
        },
        {
          "internalType": "uint256",
          "name": "endTimestamp",
          "type": "uint256"
        }
      ],
      "stateMutability": "view",
      "type": "function"
    }
  ],
  "bytecode": {
    "object": "0x608060405234801561001057600080fd5b50604051611c70380380611c7083398101604081905261002f9161006b565b600580546001600160a01b0319166001600160a01b0392909216919091179055678ac7230489e80000600655610258600781905560085561009b565b60006020828403121561007d57600080fd5b81516001600160a01b038116811461009457600080fd5b9392505050565b611bc6806100aa6000396000f3fe608060405234801561001057600080fd5b50600436106101215760003560e01c8063b1610d7e116100ad578063df6d798b11610071578063df6d798b1461029d578063e5a6b10f146102e9578063ed3dccaa14610314578063f03477831461033d578063f23a033b1461035057600080fd5b8063b1610d7e146101f4578063bcacc70a146101fd578063bfafb30e14610206578063c5be26a91461025d578063c6844d061461027d57600080fd5b8063516fa910116100f4578063516fa910146101915780635d9032b9146101a45780636af97c05146101b75780638b75d75a146101ca578063a5bbe22b146101dd57600080fd5b806321f98a15146101265780632af9338e1461013b578063369431ef1461015957806347d0da141461017e575b600080fd5b6101396101343660046116b4565b610363565b005b610143610479565b60405161015091906117e1565b60405180910390f35b61016c610167366004611843565b610727565b6040516101509695949392919061185c565b61013961018c366004611843565b610873565b61013961019f366004611958565b610a77565b6101396101b23660046116b4565b610bb5565b6101396101c5366004611843565b610da5565b6101396101d8366004611843565b610f40565b6101e660075481565b604051908152602001610150565b6101e660085481565b6101e660065481565b61023d610214366004611843565b600360208190526000918252604090912080546001820154600283015492909301549092919084565b604080519485526020850193909352918301526060820152608001610150565b61027061026b366004611843565b6112d6565b60405161015091906119c5565b61029061028b366004611843565b611362565b60405161015091906119f8565b6102da6102ab366004611843565b600160208190526000918252604090912080549101546001600160a01b03821691600160a01b900460ff169083565b60405161015093929190611a12565b6005546102fc906001600160a01b031681565b6040516001600160a01b039091168152602001610150565b6102fc610322366004611843565b6002602052600090815260409020546001600160a01b031681565b6101e661034b366004611843565b61155b565b6101e661035e366004611958565b61157c565b600082815260036020819052604082209081015490910361039f5760405162461bcd60e51b815260040161039690611a3d565b60405180910390fd5b806003015442106103f25760405162461bcd60e51b815260206004820152601760248201527f566f74696e6720706572696f642068617320656e6465640000000000000000006044820152606401610396565b600082600281111561040657610406611735565b0361042b5760018160000160008282546104209190611a9e565b909155506104749050565b600182600281111561043f5761043f611735565b036104595760018160010160008282546104209190611a9e565b600181600201600082825461046e9190611a9e565b90915550505b505050565b60045460609060009067ffffffffffffffff81111561049a5761049a6118b5565b60405190808252806020026020018201604052801561050357816020015b6104f06040805160c0810182526060808252602082018190526000928201839052810182905290608082019081526020016000905290565b8152602001906001900390816104b85790505b50905060005b600454811015610721576000806004838154811061052957610529611ab6565b906000526020600020015481526020019081526020016000206040518060c001604052908160008201805461055d90611acc565b80601f016020809104026020016040519081016040528092919081815260200182805461058990611acc565b80156105d65780601f106105ab576101008083540402835291602001916105d6565b820191906000526020600020905b8154815290600101906020018083116105b957829003601f168201915b505050505081526020016001820180546105ef90611acc565b80601f016020809104026020016040519081016040528092919081815260200182805461061b90611acc565b80156106685780601f1061063d57610100808354040283529160200191610668565b820191906000526020600020905b81548152906001019060200180831161064b57829003601f168201915b5050509183525050600282015460208201526003808301546040830152600483015460609092019160ff16908111156106a3576106a3611735565b60038111156106b4576106b4611735565b81526020016004820160019054906101000a900460ff1660028111156106dc576106dc611735565b60028111156106ed576106ed611735565b8152505082828151811061070357610703611ab6565b6020026020010181905250808061071990611b00565b915050610509565b50919050565b60006020819052908152604090208054819061074290611acc565b80601f016020809104026020016040519081016040528092919081815260200182805461076e90611acc565b80156107bb5780601f10610790576101008083540402835291602001916107bb565b820191906000526020600020905b81548152906001019060200180831161079e57829003601f168201915b5050505050908060010180546107d090611acc565b80601f01602080910402602001604051908101604052809291908181526020018280546107fc90611acc565b80156108495780601f1061081e57610100808354040283529160200191610849565b820191906000526020600020905b81548152906001019060200180831161082c57829003601f168201915b50505050600283015460038401546004909401549293909290915060ff8082169161010090041686565b600081815260016020908152604080832081516060810190925280546001600160a01b03811683529192909190830190600160a01b900460ff1660028111156108be576108be611735565b60028111156108cf576108cf611735565b8152602001600182015481525050905060075481604001516108f19190611a9e565b42116109375760405162461bcd60e51b8152602060048201526015602482015274546f6f206561726c7920746f2066696e616c697a6560581b6044820152606401610396565b6000828152600260205260409020546001600160a01b031680156109ac5760405162461bcd60e51b815260206004820152602660248201527f50726f706f73616c207761732064697370757465642c2063616e6e6f742066696044820152656e616c697a6560d01b6064820152608401610396565b600083815260208181526040909120600481018054600360ff1982168117835593860151929361ffff19909116176101008360028111156109ef576109ef611735565b0217905550600554835160065460405163a9059cbb60e01b81526001600160a01b039283166004820152602481019190915291169063a9059cbb906044016020604051808303816000875af1158015610a4c573d6000803e3d6000fd5b505050506040513d601f19601f82011682018060405250810190610a709190611b19565b5050505050565b6000610a8484848461157c565b905060006040518060c0016040528086815260200185815260200184815260200183815260200160006003811115610abe57610abe611735565b8152602001600090526000838152602081815260409091208251805193945084939192610af09284929091019061161b565b506020828101518051610b09926001850192019061161b565b50604082015181600201556060820151816003015560808201518160040160006101000a81548160ff02191690836003811115610b4857610b48611735565b021790555060a082015160048201805461ff001916610100836002811115610b7257610b72611735565b021790555050600480546001810182556000919091527f8a35acfbc15ff81a39ae7d344fd709f28e8600b4aa8c65c6b64bfe7fe36bd19b01929092555050505050565b60008281526020819052604090206002810154421015610c0b5760405162461bcd60e51b81526020600482015260116024820152704e6f74207965742061742065787069727960781b6044820152606401610396565b6000600482015460ff166003811115610c2657610c26611735565b14610c735760405162461bcd60e51b815260206004820181905260248201527f5175657374696f6e20616c7265616479206861766520612070726f706f73616c6044820152606401610396565b6040518060600160405280336001600160a01b03168152602001836002811115610c9f57610c9f611735565b81524260209182015260008581526001825260409020825181546001600160a01b039091166001600160a01b031982168117835592840151919283916001600160a81b03191617600160a01b836002811115610cfd57610cfd611735565b02179055506040919091015160019182015560048201805460ff1916828002179055506005546006546040516323b872dd60e01b815233600482015230602482015260448101919091526001600160a01b03909116906323b872dd906064016020604051808303816000875af1158015610d7b573d6000803e3d6000fd5b505050506040513d601f19601f82011682018060405250810190610d9f9190611b19565b50505050565b60008181526020819052604090206001600482015460ff166003811115610dce57610dce611735565b14610e1b5760405162461bcd60e51b815260206004820152601b60248201527f5175657374696f6e2063616e6e6f7420626520646973707574656400000000006044820152606401610396565b6000828152600160208190526040909120600754918101549091610e3e91611a9e565b4210610e825760405162461bcd60e51b8152602060048201526013602482015272746f6f206c61746520746f206469737075746560681b6044820152606401610396565b6004828101805460ff19166002908117909155600085815260209190915260409081902080546001600160a01b0319163390811790915560055460065492516323b872dd60e01b81529384019190915230602484015260448301919091526001600160a01b0316906323b872dd906064016020604051808303816000875af1158015610f12573d6000803e3d6000fd5b505050506040513d601f19601f82011682018060405250810190610f369190611b19565b50610474836115b2565b60008181526003602081815260408084208151608081018352815481526001820154938101939093526002810154918301919091529091015460608201819052909103610f9f5760405162461bcd60e51b815260040161039690611a3d565b80606001514211610ff25760405162461bcd60e51b815260206004820152601b60248201527f566f74696e6720706572696f6420686173206e6f7420656e64656400000000006044820152606401610396565b600082815260016020908152604080832081516060810190925280546001600160a01b03811683529192909190830190600160a01b900460ff16600281111561103d5761103d611735565b600281111561104e5761104e611735565b8152600191909101546020918201526000858152600282526040808220548284529181902090860151928601519394506001600160a01b0390911692909110801561109d575083516020850151115b156111915760048101805461ff00191661010017905560015b836020015160028111156110cc576110cc611735565b0361116c5760055483516006546001600160a01b039092169163a9059cbb91906110f7906002611b3b565b6040516001600160e01b031960e085901b1681526001600160a01b03909216600483015260248201526044016020604051808303816000875af1158015611142573d6000803e3d6000fd5b505050506040513d601f19601f820116820180604052508101906111669190611b19565b506112c2565b6005546006546001600160a01b039091169063a9059cbb9084906110f7906002611b3b565b836040015184602001511080156111ac575083516040850151115b156111c95760048101805461ff00191661020017905560026110b6565b600554835160065460405163a9059cbb60e01b81526001600160a01b039283166004820152602481019190915291169063a9059cbb906044016020604051808303816000875af1158015611221573d6000803e3d6000fd5b505050506040513d601f19601f820116820180604052508101906112459190611b19565b5060055460065460405163a9059cbb60e01b81526001600160a01b038581166004830152602482019290925291169063a9059cbb906044016020604051808303816000875af115801561129c573d6000803e3d6000fd5b505050506040513d601f19601f820116820180604052508101906112c09190611b19565b505b600401805460ff1916600317905550505050565b604080516060810182526000808252602082018190529181019190915260008281526001602090815260409182902082516060810190935280546001600160a01b03811684529091830190600160a01b900460ff16600281111561133c5761133c611735565b600281111561134d5761134d611735565b81526020016001820154815250509050919050565b61139a6040805160c0810182526060808252602082018190526000928201839052810182905290608082019081526020016000905290565b60008281526020819052604090819020815160c081019092528054829082906113c290611acc565b80601f01602080910402602001604051908101604052809291908181526020018280546113ee90611acc565b801561143b5780601f106114105761010080835404028352916020019161143b565b820191906000526020600020905b81548152906001019060200180831161141e57829003601f168201915b5050505050815260200160018201805461145490611acc565b80601f016020809104026020016040519081016040528092919081815260200182805461148090611acc565b80156114cd5780601f106114a2576101008083540402835291602001916114cd565b820191906000526020600020905b8154815290600101906020018083116114b057829003601f168201915b5050509183525050600282015460208201526003808301546040830152600483015460609092019160ff169081111561150857611508611735565b600381111561151957611519611735565b81526020016004820160019054906101000a900460ff16600281111561154157611541611735565b600281111561155257611552611735565b90525092915050565b6004818154811061156b57600080fd5b600091825260209091200154905081565b600083838360405160200161159393929190611b5a565b6040516020818303038152906040528051906020012090509392505050565b60006040518060800160405280600081526020016000815260200160008152602001600854426115e29190611a9e565b90526000928352600360208181526040948590208351815590830151600182015593820151600285015560609091015192019190915550565b82805461162790611acc565b90600052602060002090601f016020900481019282611649576000855561168f565b82601f1061166257805160ff191683800117855561168f565b8280016001018555821561168f579182015b8281111561168f578251825591602001919060010190611674565b5061169b92915061169f565b5090565b5b8082111561169b57600081556001016116a0565b600080604083850312156116c757600080fd5b823591506020830135600381106116dd57600080fd5b809150509250929050565b6000815180845260005b8181101561170e576020818501810151868301820152016116f2565b81811115611720576000602083870101525b50601f01601f19169290920160200192915050565b634e487b7160e01b600052602160045260246000fd5b6004811061175b5761175b611735565b9052565b6003811061175b5761175b611735565b6000815160c0845261178460c08501826116e8565b90506020830151848203602086015261179d82826116e8565b915050604083015160408501526060830151606085015260808301516117c6608086018261174b565b5060a08301516117d960a086018261175f565b509392505050565b6000602080830181845280855180835260408601915060408160051b870101925083870160005b8281101561183657603f1988860301845261182485835161176f565b94509285019290850190600101611808565b5092979650505050505050565b60006020828403121561185557600080fd5b5035919050565b60c08152600061186f60c08301896116e8565b828103602084015261188181896116e8565b91505085604083015284606083015261189d608083018561174b565b6118aa60a083018461175f565b979650505050505050565b634e487b7160e01b600052604160045260246000fd5b600082601f8301126118dc57600080fd5b813567ffffffffffffffff808211156118f7576118f76118b5565b604051601f8301601f19908116603f0116810190828211818310171561191f5761191f6118b5565b8160405283815286602085880101111561193857600080fd5b836020870160208301376000602085830101528094505050505092915050565b60008060006060848603121561196d57600080fd5b833567ffffffffffffffff8082111561198557600080fd5b611991878388016118cb565b945060208601359150808211156119a757600080fd5b506119b4868287016118cb565b925050604084013590509250925092565b81516001600160a01b0316815260208083015160608301916119e99084018261175f565b50604092830151919092015290565b602081526000611a0b602083018461176f565b9392505050565b6001600160a01b038416815260608101611a2f602083018561175f565b826040830152949350505050565b6020808252602b908201527f5468657265206973206e6f206f6e676f696e6720766f746520666f722074686960408201526a399038bab2b9ba34b7b71760a91b606082015260800190565b634e487b7160e01b600052601160045260246000fd5b60008219821115611ab157611ab1611a88565b500190565b634e487b7160e01b600052603260045260246000fd5b600181811c90821680611ae057607f821691505b60208210810361072157634e487b7160e01b600052602260045260246000fd5b600060018201611b1257611b12611a88565b5060010190565b600060208284031215611b2b57600080fd5b81518015158114611a0b57600080fd5b6000816000190483118215151615611b5557611b55611a88565b500290565b606081526000611b6d60608301866116e8565b8281036020840152611b7f81866116e8565b91505082604083015294935050505056fea2646970667358221220a7429712424ae7992305dbac0e2c783a326279a056527bba9b62299ea76fdaa664736f6c634300080d0033",
    "linkReferences": {}
  }
}